:020000040800F2
:100000000050002069380008411100084311000821
:1000100045110008471100084911000800000000C0
:100020000000000000000000000000004B1100086C
:100030004D110008000000004F1100085111000888
:10004000B1380008B1380008B1380008B1380008EC
:10005000B1380008B1380008B1380008B1380008DC
:10006000B1380008B1380008B1380008B1380008CC
:1000700059110008B1380008691100087911000809
:10008000B1380008B1380008B1380008B1380008AC
:10009000B1380008B1380008B1380008B13800089C
:1000A000B1380008B1380008B1380008B13800088C
:1000B00089110008B1380008B1380008B1380008CB
:1000C000B1380008B1380008B1380008B13800086C
:1000D0009D110008AD110008B1380008BD110008DD
:1000E000B1380008B1380008B1380008000000003D
:1000F0000000000000000000000000000000000000
:0C01000000000000000000005FF808F1A3
:1001100070B54FF0FF0C4CF4E06C1CEA11541DBF9D
:100120001CEA135594EA0C0F95EA0C0F00F0DEF868
:100130002C4481EA030621EA4C5123EA4C5350EA4D
:10014000013518BF52EA033541F4801143F480139E
:1001500038D0A0FB02CE4FF00005E1FB02E506F02F
:100160000042E0FB03E54FF00006E1FB03569CF084
:10017000000F18BF4EF0010EA4F1FF04B6F5007F8A
:1001800064F5407404D25FEA4E0E6D4146EB0606FC
:1001900042EAC62141EA55514FEAC52040EA5E5085
:1001A0004FEACE2EB4F1FD0C88BFBCF5E06F1ED82F
:1001B000BEF1004F08BF5FEA500E50F1000041EB66
:1001C000045170BD06F0004646EA010140EA020013
:1001D00081EA0301B4EB5C04C2BFD4EB0C0541EA35
:1001E000045170BD41F480114FF0000E013C00F34A
:1001F000AB8014F1360FDEBF002001F0004170BD6E
:10020000C4F10004203C35DA0C341BDC04F1140486
:10021000C4F1200500FA05F320FA04F001FA05F212
:1002200040EA020001F0004221F0004110EBD370DF
:1002300021FA04F642EB06015EEA430E08BF20EA0B
:10024000D37070BDC4F10C04C4F1200500FA04F3AE
:1002500020FA05F001FA04F240EA020001F0004140
:1002600010EBD37041F100015EEA430E08BF20EAB3
:10027000D37070BDC4F1200500FA05F24EEA020EFB
:1002800020FA04F301FA05F243EA020321FA04F02A
:1002900001F0004121FA04F220EA020000EBD370E1
:1002A0005EEA430E08BF20EAD37070BD94F0000FE1
:1002B0000FD101F00046400041EB010111F4801F15
:1002C00008BF013CF7D041EA060195F0000F18BFC6
:1002D000704703F00046520043EB030313F4801F02
:1002E00008BF013DF7D043EA0603704794EA0C0FBC
:1002F0000CEA135518BF95EA0C0F0CD050EA4106D2
:1003000018BF52EA4306D1D181EA030101F000414E
:100310004FF0000070BD50EA410606BF1046194676
:1003200052EA430619D094EA0C0F02D150EA013682
:1003300013D195EA0C0F05D152EA03361CBF1046C3
:1003400019460AD181EA030101F0004141F0FE4162
:1003500041F470014FF0000070BD41F0FE4141F4E6
:10036000780170BD81F0004102E000BF83F00043DE
:1003700030B54FEA41044FEA430594EA050F08BF40
:1003800090EA020F1FBF54EA000C55EA020C7FEA04
:10039000645C7FEA655C00F0E2804FEA5454D4EB81
:1003A0005555B8BF6D420CDD2C4480EA020281EA4B
:1003B000030382EA000083EA010180EA020281EA83
:1003C0000303362D88BF30BD11F0004F4FEA0131D5
:1003D0004FF4801C4CEA113102D0404261EB4101E4
:1003E00013F0004F4FEA03334CEA133302D052426A
:1003F00063EB430394EA050F00F0A780A4F1010426
:10040000D5F1200E0DDB02FA0EFC22FA05F280185F
:1004100041F1000103FA0EF2801843FA05F3594145
:100420000EE0A5F120050EF1200E012A03FA0EFCC4
:1004300028BF4CF0020C43FA05F3C01851EBE371EE
:1004400001F0004507D54FF0000EDCF1000C7EEB0B
:1004500000006EEB0101B1F5801F1BD3B1F5001F49
:100460000CD349085FEA30004FEA3C0C04F1010468
:100470004FEA445212F5800F80F09A80BCF1004F91
:1004800008BF5FEA500C50F1000041EB045141EA13
:10049000050130BD5FEA4C0C404141EB0101013CDC
:1004A00028BFB1F5801FE9D291F0000F04BF0146CB
:1004B0000020B1FA81F308BF2033A3F10B03B3F19D
:1004C00020020CDA0C3208DD02F1140CC2F10C022D
:1004D00001FA0CF021FA02F10CE002F11402D8BF8B
:1004E000C2F1200C01FA02F120FA0CFCDCBF41EA57
:1004F0000C019040E41AA2BF01EB0451294330BD26
:100500006FEA04041F3C1CDA0C340EDC04F1140402
:10051000C4F1200220FA04F001FA02F340EA0300D9
:1005200021FA04F345EA030130BDC4F10C04C4F11F
:10053000200220FA02F001FA04F340EA03002946FF
:1005400030BD21FA04F0294630BD94F0000F83F449
:10055000801306BF81F480110134013D4EE77FEA2C
:10056000645C18BF7FEA655C29D094EA050F08BF78
:1005700090EA020F05D054EA000C04BF1946104659
:1005800030BD91EA030F1EBF0021002030BD5FEA9D
:10059000545C05D14000494128BF41F0004130BDC5
:1005A00014F580043CBF01F5801130BD01F0004519
:1005B00045F0FE4141F470014FF0000030BD7FEA8C
:1005C000645C1ABF194610467FEA655C1CBF0B4687
:1005D000024650EA013406BF52EA033591EA030F9E
:1005E00041F4002130BD00BF90F0000F04BF002196
:1005F000704730B54FF4806404F132044FF00005C9
:100600004FF0000150E700BF90F0000F04BF002141
:10061000704730B54FF4806404F1320410F00045A7
:1006200048BF40424FF000013EE700BF42004FEAA2
:10063000E2014FEA31014FEA02701FBF12F07F431F
:1006400093F07F4F81F06051704732F07F4208BFD6
:10065000704793F07F4F04BF41F40021704730B5DD
:100660004FF4607401F0004521F000411CE700BF29
:1006700050EA010208BF704730B54FF000050AE0AC
:1006800050EA010208BF704730B511F0004502D5AD
:10069000404261EB41014FF4806404F132045FEAAF
:1006A000915C3FF4D8AE4FF003025FEADC0C18BF58
:1006B00003325FEADC0C18BF033202EBDC02C2F14A
:1006C000200300FA03FC20FA02F001FA03FE40EADC
:1006D0000E0021FA02F11444BDE600BF4A0011D217
:1006E00012F5001211D20DD56FF47873B3EB62528C
:1006F0000ED44FEAC12343F0004343EA505323FA98
:1007000002F070474FF00000704750EA013002D10C
:100710004FF0FF3070474FF0000070474FEA410242
:10072000B2F1E04324BFB3F5001CDCF1FE5C0DD94F
:1007300001F0004C4FEAC0024CEA5070B2F1004F99
:1007400040EB830008BF20F00100704711F0804F9C
:1007500021D113F13872BCBF01F00040704741F461
:1007600080114FEA5252C2F11802C2F1200C10FA65
:100770000CF320FA02F018BF40F001004FEAC12349
:100780004FEAD32303FA0CFC40EA0C0023FA02F3ED
:100790004FEA4303CCE77FEA625307D150EA0133C3
:1007A0001EBF4FF0FE4040F44000704701F0004093
:1007B00040F0FE4040F40000704700BF80F0004071
:1007C00002E000BF81F0004142001FBF5FEA410329
:1007D00092EA030F7FEA226C7FEA236C6AD04FEA29
:1007E0001262D2EB1363C1BFD2184140484041406E
:1007F000B8BF5B42192B88BF704710F0004F40F420
:10080000000020F07F4018BF404211F0004F41F43B
:10081000000121F07F4118BF494292EA030F3FD007
:10082000A2F1010241FA03FC10EB0C00C3F120031A
:1008300001FA03F100F0004302D5494260EB4000A9
:10084000B0F5000F13D3B0F1807F06D340084FEA14
:10085000310102F10102FE2A51D2B1F1004F40EB09
:10086000C25008BF20F0010040EA03007047490071
:1008700040EB0000013A28BFB0F5000FEDD2B0FA0E
:1008800080FCACF1080CB2EB0C0200FA0CF0AABF31
:1008900000EBC25052421843BCBFD04018437047CF
:1008A00092F0000F81F4000106BF80F400000132D5
:1008B000013BB5E74FEA41037FEA226C18BF7FEAAC
:1008C000236C21D092EA030F04D092F0000F08BFEE
:1008D0000846704790EA010F1CBF0020704712F0D5
:1008E0007F4F04D1400028BF40F00040704712F114
:1008F00000723CBF00F50000704700F0004343F079
:10090000FE4040F4000070477FEA226216BF0846AE
:100910007FEA23630146420206BF5FEA412390EA71
:10092000010F40F4800070474FF0000304E000BF67
:1009300010F0004348BF40425FEA000C08BF704718
:1009400043F0964301464FF000001CE050EA0102DC
:1009500008BF70474FF000030AE000BF50EA0102F1
:1009600008BF704711F0004302D5404261EB4101DE
:100970005FEA010C02BF84460146002043F0B64303
:1009800008BFA3F18053A3F50003BCFA8CF2083A28
:10099000A3EBC25310DB01FA02FC634400FA02FC31
:1009A000C2F12002BCF1004F20FA02F243EB020038
:1009B00008BF20F00100704702F1200201FA02FC9A
:1009C000C2F1200250EA4C0021FA02F243EB02008D
:1009D00008BF20EADC7070474FF0FF0C1CEAD052D1
:1009E0001EBF1CEAD15392EA0C0F93EA0C0F6FD092
:1009F0001A4480EA010C400218BF5FEA41211ED070
:100A00004FF0006343EA501043EA5111A0FB01315B
:100A10000CF00040B1F5000F3EBF490041EAD37130
:100A20005B0040EA010062F17F02FD2A1DD8B3F1AC
:100A3000004F40EBC25008BF20F00100704790F01B
:100A4000000F0CF0004C08BF49024CEA502040EA6D
:100A500051207F3AC2BFD2F1FF0340EAC250704733
:100A600040F400004FF00003013A5DDC12F1190F71
:100A7000DCBF00F000407047C2F10002410021FAE3
:100A800002F1C2F1200200FA02FC5FEA310040F1FB
:100A9000000053EA4C0308BF20EADC70704792F074
:100AA000000F00F0004C02BF400010F4000F013AAC
:100AB000F9D040EA0C0093F0000F01F0004C02BFA7
:100AC000490011F4000F013BF9D041EA0C018FE716
:100AD0000CEAD15392EA0C0F18BF93EA0C0F0AD01C
:100AE00030F0004C18BF31F0004CD8D180EA010042
:100AF00000F00040704790F0000F17BF90F0004FDB
:100B0000084691F0000F91F0004F14D092EA0C0FBC
:100B100001D142020FD193EA0C0F03D14B0218BF4F
:100B2000084608D180EA010000F0004040F0FE4095
:100B300040F40000704740F0FE4040F44000704731
:100B40004FF0FF0C1CEAD0521EBF1CEAD15392EAB0
:100B50000C0F93EA0C0F69D0A2EB030280EA010CA0
:100B600049024FEA402037D04FF0805343EA111139
:100B700043EA10130CF000408B4238BF5B0042F197
:100B80007D024FF4000C8B4224BF5B1A40EA0C003C
:100B9000B3EB510F24BFA3EB510340EA5C00B3EB6E
:100BA000910F24BFA3EB910340EA9C00B3EBD10F5C
:100BB00024BFA3EBD10340EADC001B0118BF5FEAAE
:100BC0001C1CE0D1FD2A3FF650AF8B4240EBC250D7
:100BD00008BF20F0010070470CF0004C4CEA502098
:100BE0007F32C2BFD2F1FF0340EAC250704740F4E7
:100BF00000004FF00003013A37E792F0000F00F0D9
:100C0000004C02BF400010F4000F013AF9D040EA56
:100C10000C0093F0000F01F0004C02BF490011F4EA
:100C2000000F013BF9D041EA0C0195E70CEAD153E2
:100C300092EA0C0F08D142027FF47DAF93EA0C0FC9
:100C40007FF470AF084676E793EA0C0F04D14B02AD
:100C50003FF44CAF08466EE730F0004C18BF31F05F
:100C6000004CCAD130F000427FF45CAF31F0004359
:100C70007FF43CAF5FE700BF4FF0FF3C06E000BFF2
:100C80004FF0010C02E000BF4FF0010C4DF804CD15
:100C90004FEA40024FEA41037FEA226C18BF7FEA25
:100CA000236C11D001B052EA530C18BF90EA010F27
:100CB00058BFB2EB030088BFC81738BF6FEAE170B6
:100CC00018BF40F0010070477FEA226C02D15FEA52
:100CD000402C05D17FEA236CE4D15FEA412CE1D0BE
:100CE0005DF8040B704700BF844608466146FFE785
:100CF0000FB5FFF7C9FF002848BF10F1000F0FBD67
:100D00004DF808EDFFF7F4FF0CBF012000205DF85F
:100D100008FB00BF4DF808EDFFF7EAFF34BF0120E4
:100D200000205DF808FB00BF4DF808EDFFF7E0FF7D
:100D300094BF012000205DF808FB00BF4DF808EDCE
:100D4000FFF7D2FF94BF012000205DF808FB00BF31
:100D50004DF808EDFFF7C8FF34BF012000205DF813
:100D600008FB00BF4FEA4002B2F1FE4F0FD34FF035
:100D70009E03B3EB12620DD94FEA002343F0004308
:100D800010F0004F23FA02F018BF404270474FF0B6
:100D90000000704712F1610F01D1420205D110F03D
:100DA000004008BF6FF0004070474FF000007047F0
:100DB0000348044B834202D0034B03B118477047EA
:100DC0001800002018000020000000000548064B15
:100DD0001B1AD90F01EBA301491002D0034B03B139
:100DE000184770471800002018000020000000007D
:100DF00010B5064C237843B9FFF7DAFF044B13B163
:100E00000448AFF300800123237010BD18000020B8
:100E100000000000F447000808B5054B1BB1054968
:100E20000548AFF30080BDE80840FFF7CFBF00BF23
:100E3000000000001C000020F447000872B6FEE726
:100E400010B590B006AC28220021204602F031FDFA
:100E500000230193029303930493059301220692C6
:100E60004FF4803307934FF4003108910A92022225
:100E70000D920E934FF400130F93204601F056F994
:100E800078B90F2301930223029303904FF48062F9
:100E900004920590012101A801F07CFB18B910B063
:100EA00010BDFFF7CBFFFFF7C9FF000008B501F049
:100EB00003F9FFF7C5FF00F02FF802F0ADFC00F0DA
:100EC0005BF800F073F801F061FF02F00DFA4FF0EB
:100ED0007C5000F08DFC00F09BF900F0C3F900F0AD
:100EE000CDF90B4802F082FA00F0BEFA094B1B68FC
:100EF000002BF9DB002000F01BFB064C206800F003
:100F0000FBFB00F01BFC4FF0FF332360ECE700BF5E
:100F1000C00300200800002000B589B004A9002308
:100F200004934B608B60CB6003F1804303F5043383
:100F30009A6942F020029A619A6902F020020192B5
:100F4000019A9A6942F004029A619A6902F00402D5
:100F50000292029A9A6942F008029A619B6903F030
:100F600008030393039B78230493024801F0EEFBEC
:100F700009B000BD0008014008B50A480A4B0360EB
:100F80004FF46123436000238360C36003610C223C
:100F900042618361C36100F0D3FD00B908BDFFF772
:100FA0004DFFFBE7040100200038014008B50A4866
:100FB0000A4B03604FF4E133436000238360C36056
:100FC00003610C2242618361C36100F0B9FD00B985
:100FD00008BDFFF733FFFBE7BC00002000480040DE
:100FE00030B589B005460023049305930693079313
:100FF00003684A4A934204D0494A934247D009B011
:1010000030BD484B9A6942F480429A619A6902F471
:1010100080420092009A9A6942F004029A619B69A8
:1010200003F004030193019B4FF400730493022324
:1010300005930323079304A93B4801F087FB4FF472
:101040008063049300240594069404A9364801F0B3
:101050007DFB3648364B0360102343608460802359
:10106000C360046144618461C46101F085FC58B9C6
:101070002E4BAB635D6200221146252001F052FE2B
:10108000252001F05FFEBAE7FFF7D8FEF0E7254B19
:10109000DA6942F48022DA61DA6902F4802202928B
:1010A000029A9A6942F008029A619B6903F0080368
:1010B0000393039B4FF4806304930223059303235C
:1010C000079304A91B4801F041FB4FF4006304930C
:1010D00000240594069404A9164801F037FB16482D
:1010E000164B03601023436084608023C360046157
:1010F00044618461C46101F03FFC58B90E4BAB639D
:101100005D6200221146272001F00CFE272001F02D
:1011100019FE74E7FFF792FEF0E700BF00380140C8
:101120000048004000100240000801407800002004
:1011300044000240000C0140340000201C0002402A
:10114000FEE7FEE7FEE7FEE7FEE770477047704701
:1011500008B500F0C3FF08BD08B5024801F0ECFC7B
:1011600008BD00BF3400002008B5024801F0E4FCCF
:1011700008BD00BF7800002008B5024801F0DCFC83
:1011800008BD00BF2403002008B500F0BBF80248EA
:1011900002F063F908BD00BFC003002008B5024893
:1011A00002F00EF808BD00BF6803002008B5024831
:1011B00000F01CFE08BD00BF0401002008B5024875
:1011C00000F014FE08BD00BFBC00002082B00E4B32
:1011D0009A6942F001029A619A6902F00102009252
:1011E000009ADA6942F08052DA61DB6903F08053D9
:1011F0000193019B054A536823F0E06343F00073B9
:10120000536002B0704700BF001002400000014070
:1012100010B5124C3C220021204602F04AFB104B34
:1012200000221A809A70032323600423636105233C
:10123000A36240F2EB13636040F2A323A36040F289
:101240002C63E3604FF45773236140F2D75222625C
:10125000636240F27D526263A36310BDA801002067
:10126000A4010020044B00221A755A7580229A7539
:101270007F22DA75704700BF8C010020F8B51D4F42
:1012800000233B607B601C4E336033711B4D2B6031
:101290006B60AB601A4C23606360A360E3602374EF
:1012A000A522327008227270B370FF2204213046EA
:1012B00000F074FA30712A4640F2063322F8023BFD
:1012C0003B4603CBC5F80200516096E8030020605E
:1012D000217107CDC4F80500C4F80910C4F80D2029
:1012E0004FF6FF720F21204600F068FAA4F80F00B5
:1012F000F8BD00BF840100207C01002070010020A7
:101300005C01002010B52A4B1868FFF711FB294C2F
:101310002060294B1868FFF70BFB6060274B18789B
:10132000FFF702FBA060264B1878FFF7FDFAE0609C
:1013300018222146234800F033FC234A1368013366
:101340001360224A13780133DBB21370272B12D9B2
:10135000134600221A701E4B19681E4B1A680A4465
:101360001A601B68182B13DD1A4B19221A60184BD0
:101370004FF0FF321A60174B1968C9B20F4B1B7838
:101380008BB10022104600F0FFFA00F079FA10BD90
:10139000104B1B680A2BEEDC0E4B0A221A600C4B1A
:1013A00001221A60E7E70A46084600F0EDFAECE78A
:1013B000A80100208C010020080000205701002017
:1013C000A401002004010020580100205001002049
:1013D000000000200400002038B5054600F08AFE19
:1013E000044600F087FE001BA842FAD338BD000077
:1013F00070B5184C184B03CBC4F80200C4F80610A3
:10140000164EFF220421304600F0C8F93071144D09
:1014100096E8030028602971234607CBC5F805002C
:10142000C5F80910C5F80D204FF6FF720F212846A8
:1014300000F0C4F9A5F80F0011222946094800F070
:10144000AFFB00B170BD1C20FFF7C6FFF37801337E
:10145000F370F7E770010020840100207C01002078
:101460005C010020BC00002038B500F043FE0446BB
:101470004021294801F05CFA003818BF0120274BB1
:101480001870274B1B68E41A002C01DB00240DE0C8
:10149000244B00221A809A7038BD234A002111552E
:1014A000002B35D01F4B01221A550134022CF3DCDE
:1014B000E31C01259D40ADB22946174801F038FADA
:1014C00000280CBF01230023E7D1164A125D002A31
:1014D000E3D11920FFF780FF29460F4801F028FAD1
:1014E00000280CBF01230023DAD10F4A125D002A25
:1014F000D6D100F0FFFDC830094A10600B4B1C60CC
:10150000094B01221A55074B00221A809A70C3E733
:10151000044B00221A55C8E700080140570100207B
:101520004C010020A40100205401002008000020EC
:1015300070B50646124B1B78D3B1124B4F221A805E
:10154000104C63886FF30B036380A3886FF30B0366
:10155000A380E37823F0F003E370637923F0F003D2
:1015600063710025E580FFF743FF258026B970BD34
:10157000044B49221A80E3E7FFF73AFFF7E700BF81
:10158000570100208401002008B50F4B4FF0000CDC
:10159000A3F800C0B3F802E060F30B0EA3F802E07A
:1015A000988861F30B009880D97862F30711D9709D
:1015B0005A7922F0F0025A71A3F806C0FFF718FF1B
:1015C0001C20FFF709FF08BD84010020F0B587B09B
:1015D0000023009301930293039304930593424BDA
:1015E0001B7863B1414BA3FB0023DB0803EB8303B0
:1015F000B0EB430F75D13D4BA3FB0003D8083B4B29
:10160000A3FB0023DB08059303EB8302A0EB42005E
:10161000052833D015D8022829D008D818B10128B8
:1016200003D101230393002752E0002057E0032851
:1016300020D0042803D1012302930193F3E7002073
:101640004DE0082821D009D806281AD0072803D150
:10165000012302930493E6E7002040E0092804D127
:101660000133059301230193DDE7002037E00123D7
:101670000493D8E7012302930093D4E70123029354
:10168000D1E7012302930393CDE7013305930123AF
:101690000093C8E7164B33F8164000224FF45771F9
:1016A0002046FFF771FF01224FF457712046FFF7E4
:1016B0006BFF00224FF457712046FFF765FF01359D
:1016C00006AB03EB860353F8183CAB42E2D8013774
:1016D000052F03D8074BDE5D0025F1E7012007B099
:1016E000F0BD0020FBE700BF57010020CDCCCCCCE3
:1016F0000C4800081848000808B5012807D002283F
:101700000AD070B90C4B1B787BB178200AE00A4BE9
:101710001B7863B1642005E0074B1B784BB1502068
:1017200000E00020FFF752FF08BD0C20FAE70A2076
:10173000F8E70820F6E700BF5701002008B50022AF
:1017400040F2DE3140F2FB40FFF71EFF012240F283
:10175000DE3140F2FB40FFF717FF002240F2DE319E
:1017600040F2FB40FFF710FF002240F2613140F2EF
:10177000A640FFF709FF012240F2613140F2A64086
:10178000FFF702FF002240F2613140F2A640FFF76E
:10179000FBFE0120FFF7CCFE08BD0000034610460B
:1017A00005E013F8011B41400348405C11464A1E06
:1017B0000029F6D1704700BF204A0008034668B9E7
:1017C0004FF6FF720DE013F8011B5140C9B2DFF86C
:1017D00018C03CF8111081EA12220146481E002967
:1017E000F1D11046704700BF2048000800000000FB
:1017F0002DE9F0418046002432E02046FFF798F8BA
:101800001B49FFF79DF90146FEF7DEFFFEF70EFFCD
:1018100015A3D3E90023FEF77BFCFEF77FFF054607
:1018200014494046FFF7D8F8FEF700FF06460F467A
:10183000284602F06BF84FF07C51FFF7CDF8FEF729
:10184000F5FE00220C4BFEF793FD02460B46304698
:101850003946FEF75DFCFEF741FF084B1855013491
:101860009F2CCADDBDE8F0814AD8124DFB2109400A
:101870000000204300007F430000E03FE40100201F
:1018800008B5064801F02CFD012800D008BD9C22B7
:101890000349024801F0D2FBF8E700BF68030020CB
:1018A0008402002008B59C220021024802F001F8C1
:1018B00008BD00BF8402002030B585B004464FF05B
:1018C000000C18E04FF0E00E1DE0082024E04FF07F
:1018D000E00E2FE0082036E04FF0E00E41E0082552
:1018E0000CF1100068444EEA050E00F804EC9B0071
:1018F000DBB20CF1010CBCF1030F3CDC11F0800FEA
:10190000E0D14FF0800E0CF11000684400F808ECB4
:1019100011F0400FD9D00E204EEA000E0CF110004D
:10192000684400F808EC8900C9B212F0800FCED1EB
:101930004FF0800E0CF11000684400F80CEC12F02F
:10194000400FC7D00E204EEA000E0CF11000684484
:1019500000F80CEC9200D2B213F0800FBCD14FF023
:10196000800E0CF11000684400F804EC13F0400FF6
:10197000B5D00E25B4E701AB07CB20606160A26053
:10198000204605B030BD00002DE9F04385B080460B
:101990000F461646FFF786FF002512E06C1D04EB8C
:1019A00044030A4C04EB830433463A4641466846F6
:1019B000FFF782FFA44600980199029AACE807005D
:1019C0000135022DEADD05B0BDE8F0838402002078
:1019D000026802F10C0353E8003F23F0C0030C320D
:1019E00042E800310029F3D1202380F841307047CC
:1019F000026802F10C0353E8003F23F490730C32A9
:101A000042E800310029F3D1026802F1140353E8DF
:101A1000003F23F00103143242E800310029F3D1E2
:101A2000036B012B05D0202380F842300023036391
:101A30007047026802F10C0353E8003F23F01003E3
:101A40000C3242E800310029F3D1ECE790F8413044
:101A5000212B01D0022070478368B3F5805F17D037
:101A6000036A5A1C02621A7803685A60C38C9BB2DC
:101A7000013B9BB2C3844BB90268D36823F0800357
:101A8000D3600268D36843F04003D36000207047FE
:101A90000369002BE4D1036A1B880268C3F30803BF
:101AA0005360036A02330362E0E7000010B50446A6
:101AB0000268136923F44053C1680B4313618368C0
:101AC0000269134342691A430168CB6823F4B05397
:101AD00023F00C031343CB600268536923F4407373
:101AE00081690B4353610268134B9A4220D000F086
:101AF0000DFE024602EB820202EB820263689B004B
:101B0000B2FBF3F20D48A0FB02314909642303FB49
:101B100011231B013233A0FB03035B0903F0F00226
:101B200002EB011203F00F03216813448B6010BD18
:101B300000F0FCFD0246DDE7003801401F85EB5157
:101B400060B310B5044690F8413013B3242384F8F1
:101B500041302268D36823F40053D3602046FFF756
:101B6000A5FF2268136923F4904313612268536927
:101B700023F02A0353612268D36843F40053D360EF
:101B800000206064202384F8413084F84230606390
:101B900010BD80F84030FFF723FAD7E701207047E7
:101BA00090F84130202B37D110B50446002935D0AC
:101BB0000AB9012010BD01628284C28400234364FB
:101BC000212084F841001648D4F838C0CCF8280009
:101BD0001448D4F838C0CCF82C001348D4F838C0D6
:101BE000CCF83000A06B436320681346021DA06B45
:101BF00000F0F6FE23686FF040021A60226802F1DE
:101C0000140353E8003F43F08003143242E80031EC
:101C10000029F3D10846CDE7022070470120C9E72B
:101C20002F1C0008971C0008A51C0008704708B569
:101C30000346406A1B681B6813F0200F1AD100236B
:101C4000C384026802F1140353E8003F23F08003C9
:101C5000143242E800310029F3D1026802F10C038A
:101C600053E8003F43F040030C3242E800310029C2
:101C7000F3D108BDFFF7DAFFFBE708B50168CA68D2
:101C800022F04002CA60202280F84120FFF7CEFFF8
:101C9000002008BD704708B5406AFFF7FBFF08BD8C
:101CA0007047704710B5446A23685B6994F8412017
:101CB000212A0FD023685B6903F0400394F8422087
:101CC000222A11D0636C43F0100363642046FFF7AF
:101CD000E8FF10BD03F08003002BEBD00023E3846A
:101CE0002046FFF775FEE5E7002BEBD00023E385E8
:101CF0002046FFF77DFEE5E708B5406A0023C3856F
:101D0000C384FFF7CEFF08BD704790F84230222B06
:101D100067D18368B3F5805F4DD0826AB3F5805F89
:101D200004D0002B54D10369002B51D103685B68A8
:101D30001370836A01338362C38D9BB2013B9BB2F4
:101D4000C385002B4FD100B583B00268D36823F060
:101D50002003D3600268D36823F48073D3600268E1
:101D6000536923F001035361202380F8423000239C
:101D70004363036B012B31D100230363026802F13B
:101D80000C0353E8003F23F010030C3242E800310B
:101D90000029F3D103681A6812F0100F05D00191E1
:101DA0001A6801925B680193019B818DFFF7ACFF7C
:101DB000002003B000BD0269002AAED1826A036828
:101DC0005B68C3F308031380836A02338362B3E75B
:101DD00003685B6803F07F031370AAE7FFF760FFF7
:101DE000E6E70220704700207047000010B582B07F
:101DF000044602681368D068516913F00F0F09D1C7
:101E000013F0200F0CD010F0200F09D02046FFF760
:101E10007CFF16E011F0010115D110F4907F12D172
:101E2000216B012979D013F0800F03D010F0800FBF
:101E300040F0118113F0400F03D010F0400F40F03C
:101E40000E8102B010BD13F0010F06D010F4807F98
:101E500003D0626C42F00102626413F0040F04D0FC
:101E600019B1626C42F00202626413F0020F04D0F6
:101E700019B1626C42F00402626413F0080F07D0DB
:101E800010F0200F00D119B1626C42F008026264B8
:101E9000626C002AD5D013F0200F02D010F0200F72
:101EA00029D123685B6903F04003626C12F0080FCC
:101EB00000D163B32046FFF79BFD23685B6913F0F5
:101EC000400F20D0226802F1140353E8003F23F0B2
:101ED0004003143242E800310029F3D1E36B73B1BF
:101EE000614A5A63E06B00F0DBFD0028A9D0E06B8B
:101EF000436B9847A5E72046FFF707FFD1E7204649
:101F0000FFF7CFFE9DE72046FFF7CBFE99E720467F
:101F1000FFF7C7FE0023636493E713F0100F82D02E
:101F200010F0100F3FF47FAF00230193136801936B
:101F300053680193019B536913F0400F50D0E26B3B
:101F400013685B689BB2002B3FF47BAFA18D994275
:101F50007FF677AFE3859369202B36D0226802F1B4
:101F60000C0353E8003F23F480730C3242E8003145
:101F70000029F3D1226802F1140353E8003F23F053
:101F80000103143242E800310029F3D1226802F142
:101F9000140353E8003F23F04003143242E80031B9
:101FA0000029F3D1202384F842302163226802F112
:101FB0000C0353E8003F23F010030C3242E80031D9
:101FC0000029F3D1E06B00F048FD02236363A18D8B
:101FD000E38D9BB2C91A89B22046FFF795FE30E720
:101FE000A18DE38D9BB2C91A89B2E38D9BB2002B00
:101FF0003FF427AF00293FF424AF226802F10C031D
:1020000053E8003F23F490730C3242E8003000287C
:10201000F3D1226802F1140353E8003F23F00103D7
:10202000143242E800300028F3D1202384F84230F3
:102030002063226802F10C0353E8003F23F01003F1
:102040000C3242E800300028F3D1022363632046BB
:10205000FFF75AFEF5E62046FFF7F8FCF1E62046CA
:10206000FFF70BFEEDE600BFF91C000810B50446B3
:102070000E4B18680E4B1A784FF47A73B3FBF2F3D9
:10208000B0FBF3F000F06CFE68B90F2C01D9012011
:102090000AE0024621464FF0FF3000F043FE054BB8
:1020A0001C60002000E0012010BD00BF14000020D3
:1020B0000C0000201000002008B5074A136843F008
:1020C00010031360032000F01BFE0F20FFF7CEFF6C
:1020D000FFF77CF8002008BD00200240034A116889
:1020E000034B1B780B441360704700BF2003002094
:1020F0000C000020014B1868704700BF200300202F
:1021000082B0084B1B68084AA2FB03235B0A00FB52
:1021100003F3019300BF019B5A1E0192002BF9D1DA
:1021200002B0704714000020D34D6210002800F068
:10213000F38170B582B00446036813F0010F2CD010
:102140009A4B5B6803F00C03042B1DD0974B5B6824
:1021500003F00C03082B12D06368B3F5803F41D025
:10216000002B55D103F1804303F504331A6822F4A0
:1021700080321A601A6822F480221A6037E08B4B92
:102180005B6813F4803FE7D0884B1B6813F4003F73
:1021900003D06368002B00F0C181236813F0020FA5
:1021A00075D0824B5B6813F00C0F5FD07F4B5B6880
:1021B00003F00C03082B54D02369002B00F08A8015
:1021C0007B4B01221A60FFF795FF0546774B1B6892
:1021D00013F0020F75D1FFF78DFF401B0228F5D9D0
:1021E0000320A0E1714A136843F4803313606368ED
:1021F00043B3FFF77FFF05466C4B1B6813F4003FAA
:10220000CBD1FFF777FF401B6428F5D903208AE183
:10221000B3F5A02F09D0654B1A6822F480321A60FA
:102220001A6822F480221A60E1E703F18043A3F5E3
:102230003C331A6842F480221A601A6842F48032F1
:102240001A60D4E7FFF756FF0546584B1B6813F496
:10225000003FA2D0FFF74EFF401B6428F5D90320B2
:1022600061E1524B5B6813F4803FA5D14F4B1B6873
:1022700013F0020F03D02369012B40F051814B4A28
:10228000136823F0F803616943EAC103136023680C
:1022900013F0080F33D0A369002B5DD0444B01220B
:1022A000C3F88024FFF726FF0546404B5B6A13F016
:1022B000020F21D1FFF71EFF401B0228F5D9032092
:1022C00031E13A4A136823F0F803616943EAC10334
:1022D0001360DCE7364B00221A60FFF70BFF054660
:1022E000324B1B6813F0020FD1D0FFF703FF401BE6
:1022F0000228F5D9032016E10120FFF701FF23682A
:1023000013F0040F00F09880284BDB6913F0805F16
:1023100035D1264BDA6942F08052DA61DB6903F08D
:1023200080530193019B01231E46224B1B6813F42B
:10233000807F27D0E368012B3ED0002B54D103F1DE
:10234000804303F504331A6A22F001021A621A6A02
:1023500022F004021A6234E0154B0022C3F88024F4
:10236000FFF7C8FE0546114B5B6A13F0020FC6D09B
:10237000FFF7C0FE401B0228F5D90320D3E000235D
:102380001E46D2E70B4A136843F480731360FFF7CD
:10239000B1FE0546074B1B6813F4807FCAD1FFF7D7
:1023A000A9FE401B6428F5D90320BCE000100240C0
:1023B00000004242007000405F4A136A43F001038C
:1023C0001362E36833B3FFF795FE05465A4B1B6A69
:1023D00013F0020F2FD1FFF78DFE401B41F288331F
:1023E0009842F3D903209EE0052B09D0524B1A6A7C
:1023F00022F001021A621A6A22F004021A62E0E76D
:102400004D4B1A6A42F004021A621A6A42F0010243
:102410001A62D6E7FFF76EFE0546474B1B6A13F0BC
:10242000020F08D0FFF766FE401B41F28833984246
:10243000F3D9032077E0E6B9E369002B72D03E4A76
:10244000526802F00C02082A56D0022B17D03B4BE0
:1024500000221A66FFF74EFE0446374B1B6813F046
:10246000007F47D0FFF746FE001B0228F5D9032066
:1024700059E0314AD36923F08053D361DCE72F4B15
:1024800000221A66FFF736FE05462B4B1B6813F039
:10249000007F06D0FFF72EFE401B0228F5D903204F
:1024A00041E0236AB3F5803F1AD023494B6823F4F7
:1024B0007413226A606A024313434B601F4B01226C
:1024C0001A66FFF717FE04461B4B1B6813F0007FCC
:1024D0000ED1FFF70FFE001B0228F5D9032022E0E2
:1024E000154A536823F40033A1680B435360DCE7BB
:1024F000002018E0002016E0012B16D00E4B5B6880
:1025000003F48031226A914211D103F47013626A9C
:1025100093420ED1002006E001207047012002E026
:10252000012000E0184602B070BD0120FBE7012049
:10253000F9E70120F7E700BF001002400000424227
:102540000F4B5B6803F00C02082A01D00D4870475E
:10255000C3F383420C49885C13F4803F0BD0084BD3
:102560005B68C3F34043094AD35C064A02FB00F0B0
:10257000B0FBF3F07047064B03FB00F0704700BF61
:102580000010024000127A00244B0008204B000883
:1025900000093D00002800F0A08070B50D460446FB
:1025A000524B1B6803F007038B420BD24F4A136850
:1025B00023F007030B431360136803F007038B42F8
:1025C00040F08D80236813F0020F17D013F0040F32
:1025D00004D0474A536843F4E0635360236813F020
:1025E000080F04D0424A536843F460535360404A92
:1025F000536823F0F003A1680B435360236813F082
:10260000010F31D06368012B20D0022B25D0384A2E
:10261000126812F0020F64D035494A6822F00302B2
:1026200013434B60FFF766FD0646314B5B6803F0D2
:102630000C036268B3EB820F16D0FFF75BFD801BC3
:1026400041F288339842F0D9032045E0284A1268C5
:1026500012F4003FE0D101203EE0254A126812F05A
:10266000007FD9D1012037E0204B1B6803F007031E
:10267000AB420AD91D4A136823F007032B431360AA
:10268000136803F00703AB422DD1236813F0040F46
:1026900006D0174A536823F4E063E1680B435360A4
:1026A000236813F0080F07D0114A536823F46053CE
:1026B000216943EAC1035360FFF742FF0C4B5B689B
:1026C000C3F303130B4AD35CD8400B4B18600B4B7E
:1026D0001868FFF7CBFC002070BD01207047012077
:1026E000FAE70120F8E70120F6E700BF00200240EA
:1026F000001002403C4B0008140000201000002095
:10270000014B1868704700BF1400002008B5FFF7A0
:10271000F7FF044B5B68C3F30223034AD35CD84042
:1027200008BD00BF00100240344B000808B5FFF799
:10273000E7FF044B5B68C3F3C223034AD35CD84072
:1027400008BD00BF00100240344B000870B582B0D5
:102750004FF0000EF446A4E0012B28D0022B03D149
:10276000CB6803F1080E24E01BBB8B68002B65D0FF
:10277000012B5CD042614FF0080E1AE0664DAB426F
:10278000F3D00CD8A5F58015AB42EED005F5702539
:10279000AB42EAD0A5F58015AB42E6D009E05F4D2B
:1027A000AB42E2D005F58035AB42DED001E0D1F896
:1027B0000CE0FF2C45D806464FEA8C0233680F2503
:1027C000954023EA05030EFA02F2134333604B6887
:1027D00013F0805F63D0524B9A6942F001029A6114
:1027E0009B6903F001030193019B4FEA9C02951C36
:1027F0004C4B53F825600CF00305AD000F23AB40A4
:1028000026EA0306484B984222D003F5806398429B
:1028100063D003F58063984261D003F580639842EA
:1028200014D0042315E0CB6803F10C0EC1E702615C
:102830004FF0080EBDE74FF0000EBAE74FF0040E60
:10284000B7E7061DACF108029200B7E7032300E0EA
:102850000023AB4033430232324D45F822304B68FF
:1028600013F4801F3DD0314A9368234393604B6833
:1028700013F4001F3BD02D4AD3682343D3604B6829
:1028800013F4003F39D0294A5368234353604B68FF
:1028900013F4803F37D0254A1368234313600CF1AB
:1028A000010C0B6833FA0CF233D0012202FA0CF25D
:1028B00003EA020432EA0303F1D14B68032BBAD0D6
:1028C0007FF64AAF122BAED03FF658AF112B7FF4F4
:1028D00070AFCB6803F1040E6BE70123B9E7022365
:1028E000B7E7124A936823EA04039360BFE70F4AED
:1028F000D36823EA0403D360C1E70C4A536823EA90
:1029000004035360C3E7094A136823EA040313600E
:10291000C5E702B070BD00BF0000221000003110FA
:102920000010024000000140000801400004014086
:102930008368194201D0012070470020704700B51C
:102940008E46016C4FF0010C0CFA01F1D0F83CC03E
:10295000CCF8041001684B604368102B05D0036865
:10296000C3F808E00368DA6000BD03689A60036892
:10297000C3F80CE0F8E7000050B310B40246016859
:10298000144B0B441448A0FB03031B099B00136466
:10299000124BD363022382F8213008686FF30D10C5
:1029A000536894682343D4682343146923435469C8
:1029B000234394692343D469234303430B600020DA
:1029C0009063012382F8213082F8200010BC704708
:1029D00001207047F8FFFDBFCDCCCCCC00000240F9
:1029E00010B5044690F82000012834D0012084F866
:1029F000200094F82100012804D0002384F820301E
:102A0000022010BD022084F821000020A063D4F829
:102A100000C0DCF8000020F00100CCF800002046E7
:102A2000FFF78DFFE36A5BB12268136843F00E0382
:102A300013602268136843F0010313600020E0E78D
:102A40002268136823F0040313602268136843F0BC
:102A50000A031360EDE70220D3E7034690F8212034
:102A6000022A06D004228263002280F8202001205E
:102A7000704701680A6822F00E020A6001680A685D
:102A800022F001020A60026CC06B012101FA02F21D
:102A9000426083F82110002083F820007047000076
:102AA00008B590F82130022B03D004238363012062
:102AB00008BD0268136823F00E03136002681368F0
:102AC00023F0010313600368194A934214D01432AF
:102AD00093421FD0143293421ED0143293421ED020
:102AE000143293421ED01432934202D04FF08072BF
:102AF00003E04FF4801200E001220E4B5A600123E4
:102B000080F82130002380F82030436B6BB1984768
:102B10000020CDE71022F0E74FF48072EDE74FF48C
:102B20008052EAE74FF48032E7E71846C0E700BF7B
:102B3000080002400000024008B5C36B1A68D0F8D4
:102B400000C0DCF800E0016C04238B40134238D055
:102B50001EF0040F35D0DCF8003013F0200F05D143
:102B6000DCF8003023F00403CCF800300368464A58
:102B7000934214D01432934218D01432934217D097
:102B80001432934217D01432934217D01432934226
:102B900002D04FF0806203E04FF4800200E0042294
:102BA0003A4B5A60C36A03B1984708BD4022F7E721
:102BB0004FF48062F4E74FF48042F1E74FF4802253
:102BC000EEE702238B4013423FD01EF0020F3CD0B1
:102BD000DCF8003013F0200F08D1DCF8003023F0CF
:102BE0000A03CCF80030012380F821300368264A1C
:102BF000934214D0143293421CD0143293421BD00F
:102C0000143293421BD0143293421BD0143293429D
:102C100002D04FF0007203E04FF4001200E00222F5
:102C20001A4B5A60002380F82030836A002BBCD0F6
:102C30009847BAE72022F3E74FF40072F0E74FF429
:102C40000052EDE74FF40032EAE708238B401342CD
:102C5000ABD01EF0080FA8D0DCF8003023F00E0334
:102C6000CCF80030026CC16B012303FA02F24A6017
:102C7000836380F82130002380F82030036B002B21
:102C800093D0984791E700BF08000240000002403F
:102C9000002808DB0901C9B200F1604000F561407D
:102CA00080F80013704700F00F000901C9B2014B12
:102CB0001954704714ED00E000B500F00700A0F1D2
:102CC000030CBCF1040F07D8C0F1070E043006282E
:102CD00006D84FF0000C03E04FF0040E4FF0000C4C
:102CE0004FF0FF3303FA0EF021EA000101FA0CF174
:102CF00003FA0CF322EA030241EA020000BD0000DD
:102D0000074AD36823F4E0631B041B0C000200F4A1
:102D1000E060034343F0BF6343F40033D360704784
:102D200000ED00E010B50446054BD868C0F3022062
:102D3000FFF7C2FF01462046FFF7AAFF10BD00BF04
:102D400000ED00E0002807DB00F01F02400901232E
:102D50009340024A42F82030704700BF00E100E093
:102D60000138B0F1807F0BD24FF0E0235861054A63
:102D7000F02182F823100020986107221A61704721
:102D80000120704700ED00E07047000008B50E48D4
:102D90000E4B03604FF48273436000238360C36073
:102DA000036143614FF4007282611022C2610362C9
:102DB000436283620A23C36200F0E4F800B908BDED
:102DC000FEF73CF8FBE700BF680300200038004036
:102DD00010B586B000230293039304930593026811
:102DE000214B9A4201D006B010BD044603F5EC33E6
:102DF000DA6942F48042DA61DA6902F480420092D0
:102E0000009A9A6942F008029A619B6903F00803EC
:102E10000193019B4FF42043029302230393032366
:102E2000059302A91148FFF791FC1148114B03606B
:102E300010234360002383608022C26003614361EA
:102E40008361C361FFF798FD58B9094BA3645C62C5
:102E5000002211462420FFF765FF2420FFF772FFB0
:102E6000C1E7FDF7EBFFF0E700380040000C014040
:102E700024030020580002402DE9F04383B00446AB
:102E80000F4616461D46FFF735F90A9B1B1A03EB42
:102E90000508FFF72FF98146284B1B68C3F3CB3396
:102EA00008FB03F3019323689B6837EA03030CBF15
:102EB00001230023B3423DD0B5F1FF3FF3D0FFF72C
:102EC00019F94B46C01A404507D2019A02B1424651
:102ED000019B013B01939046E5E72268536823F08C
:102EE000E00353606368B3F5827F0BD0A36AB3F548
:102EF000005F14D0012384F85130002384F850304F
:102F0000032018E0A368B3F5004F02D0B3F5806F3B
:102F1000ECD12268136823F040031360E6E72268CF
:102F2000136823F4005313602268136843F40053BA
:102F30001360DFE7002003B0BDE8F0831400002039
:102F400070B582B004460B460D461646009201222B
:102F50000221FFF791FF48B900962B4602468021D7
:102F60002046FFF789FF38B902B070BD636D43F0AA
:102F7000200363650320F7E7636D43F02003636577
:102F80000320F1E7002856D010B50446436A33B950
:102F90004368B3F5827F05D00023C36102E00023BC
:102FA000036143610023A36294F85130002B3CD0AD
:102FB000022384F851302268136823F04003136021
:102FC000636803F48273A26802F404421343E26864
:102FD00002F400621343226902F0020213436269A1
:102FE00002F001021343A26902F400721343E26982
:102FF00002F038021343226A02F080021343A26AED
:1030000002F40052216813430B60638B226803F0C3
:10301000040353602268D36923F40063D361002062
:103020006065012384F8513010BD84F8503020468B
:10303000FFF7CEFEBCE701207047000038B590F8DE
:103040005130012B5ED10446DDB200295BD0002A4D
:1030500059D090F85030012B57D0012380F85030D0
:10306000032380F851300023436501638286C286C2
:103070008363436403648387C3878368B3F5004F26
:103080002DD0A36C224ADA62A36C224A9A62A36C06
:10309000214A1A63A36C00225A632268E38E9BB212
:1030A0000C32216BA06CFFF79BFC014610BB236820
:1030B0001A6812F0400F03D11A6842F040021A60F9
:1030C000002384F850302268536843F02003536093
:1030D0002268536843F0020353600D4613E0026810
:1030E000136823F0400313600268136843F48043BD
:1030F0001360C6E7636D43F010036365002384F833
:10310000503000E00225284638BD0225FBE700BF0D
:10311000213100084F3100082D31000870477047F9
:1031200008B5406AFFF7FBFF08BD704708B5406A65
:103130000268536823F003035360436D43F01003A8
:103140004365012380F85130FFF7EFFF08BD30B52C
:1031500083B00546446AFEF7CDFF2B681B6813F069
:10316000200F23D1024621684B6823F020034B60D7
:1031700021684B6823F002034B6064212046FFF76F
:10318000DFFE18B1636D43F020036365A36833B9B4
:1031900001932368DA6801929B680193019B0023E5
:1031A000E386012384F85130636D23B92046FFF78D
:1031B000B5FF03B030BD2046FFF7B7FFF9E70000C9
:1031C00010B584B00446026851689368C3F3801058
:1031D00013F0400F05D113F0010F02D011F0400F92
:1031E0005ED113F0020F02D011F0800F5CD1C3F357
:1031F000401C13F0200F01D1002858D011F0200FEF
:1032000055D070B194F85130032B52D0636D43F018
:103210000403636500230193D368019393680193CA
:10322000019BBCF1000F0CD0636D43F0010363659B
:103230000023039393680393136823F04003136000
:10324000039B636D002B32D02268536823F0E003A8
:103250005360012384F8513011F0020F02D111F0B4
:10326000010F2ED02268536823F003035360E36CF0
:103270004BB1164A5A63E06CFFF712FC18B1636D4C
:1032800043F040036365A36C8BB1104A5A63A06C92
:10329000FFF706FC58B1636D43F04003636506E039
:1032A000236C2046984702E0636C2046984704B0A0
:1032B00010BD00230293D368029393680293029B8C
:1032C000F5E72046FFF731FFF1E700BFD1320008F4
:1032D00008B5406A0023C387C386FFF726FF08BDF1
:1032E00090F851007047000000B587B000230293AA
:1032F0000393049305930093019315484FF0804284
:10330000026027224260836040F2E732C2600361BC
:10331000836100F093F988B94FF48053029302A9B6
:103320000B4800F0C2F960B900230093019369468D
:10333000074800F039FA38B907B000BDFDF77EFD47
:10334000EAE7FDF77BFDEFE7FDF778FDF4E700BF67
:10335000C00300200368B3F1804F00D0704700B570
:1033600083B003F50433DA6942F00102DA61DB6904
:1033700003F001030193019B002211461C20FFF77B
:10338000D1FC1C20FFF7DEFC03B000BD036AD0F8BF
:1033900020C02CF0010CC0F820C0D0F818C02CF0D0
:1033A000F00C4CEA021223F00A030B438261036221
:1033B0007047036AD0F820C02CF0100CC0F820C071
:1033C000D0F818C02CF4704C4CEA023223F0A00361
:1033D00043EA0113826103627047836823F070033C
:1033E0000B4343F0070383607047000090F83D30C3
:1033F000012B27D1022380F83D300268D36843F0C7
:103400000103D3600368114A934210D0B3F1804F97
:103410000DD0A2F59432934209D002F58062934216
:1034200005D01A6842F001021A60002070479A68BD
:1034300002F00702062A07D01A6842F001021A6059
:10344000002070470120704700207047002C014089
:103450007047704770477047704770B504460368FF
:10346000DE681D6915F0020F10D016F0020F0DD0A6
:103470006FF002021A610123037703689B6913F05E
:10348000030F5ED0FFF7E6FF0023237715F0040F4C
:1034900012D016F0040F0FD023686FF004021A61E7
:1034A0000223237723689B6913F4407F4FD0204683
:1034B000FFF7D0FF0023237715F0080F12D016F086
:1034C000080F0FD023686FF008021A6104232377D6
:1034D0002368DB6913F0030F40D02046FFF7BAFFE3
:1034E0000023237715F0100F12D016F0100F0FD015
:1034F00023686FF010021A61082323772368DB69C1
:1035000013F4407F31D02046FFF7A4FF0023237738
:1035100015F0010F02D016F0010F2DD115F0800F1C
:1035200002D016F0800F2FD115F0400F02D016F008
:10353000400F31D115F0200F02D016F0200F33D1FB
:1035400070BDFFF786FF2046FFF785FF9CE720460A
:10355000FFF77FFF2046FFF77EFFABE72046FFF730
:1035600078FF2046FFF777FFBAE72046FFF771FFA5
:103570002046FFF770FFC9E723686FF001021A6168
:103580002046FFF765FFC9E723686FF080021A61E4
:10359000204600F040F9C7E723686FF040021A6147
:1035A0002046FFF759FFC5E723686FF020021A6134
:1035B000204600F02FF9C3E703681F4A90420AD063
:1035C000B0F1804F07D0A2F59432904203D002F5BB
:1035D0008062904203D123F070034A681343164A75
:1035E00090420AD0B0F1804F07D0A2F594329042B9
:1035F00003D002F58062904203D123F44073CA687D
:10360000134323F080034A69134303608B68C3624A
:103610000B688362084B98420AD001234361036917
:1036200013F0010F03D0036923F001030361704716
:103630000B690363F1E700BF002C014040B310B5F4
:10364000044690F83D30F3B1022384F83D30214622
:1036500051F8040BFFF7B0FF012384F8463084F8DB
:103660003E3084F83F3084F8403084F8413084F8AC
:10367000423084F8433084F8443084F8453084F88C
:103680003D30002010BD80F83C30FFF763FEDBE7E3
:1036900001207047D0F808C02CF47F4C42EA032286
:1036A0000A4342EA0C028260704790F83C30012BDA
:1036B00078D010B50446012380F83C30022380F80E
:1036C0003D300268936823F47F4323F077039360CF
:1036D0000B68602B4CD023D8402B54D011D8202B12
:1036E00003D00AD80BB1102B05D119462068FFF77B
:1036F00074FE002028E0012026E0302BF5D00120C8
:1037000022E0502B0AD1CA6849680068FFF73EFEE4
:1037100050212068FFF761FE002015E0012013E032
:10372000B3F5805F3AD0B3F5005F14D0702B37D17A
:10373000CB684A6889680068FFF7ACFF2268936825
:1037400043F0770393600020012384F83D30002389
:1037500084F83C3010BDCB684A6889680068FFF780
:1037600099FF2268936843F4804393600020EBE75D
:10377000CA6849680068FFF71CFE60212068FFF7EF
:103780002CFE0020E0E7CA6849680068FFF7FEFDEC
:1037900040212068FFF721FE0020D5E70020D3E775
:1037A0000120D1E70220704790F83C20012A2DD05B
:1037B00000B50346012280F83C20022280F83D201B
:1037C00002685068D2F808E020F0700C086840EAFF
:1037D0000C0050601A680E4882420AD0B2F1804F45
:1037E00007D0A0F59430824203D000F58060824279
:1037F00005D12EF0800E496841EA0E019160012248
:1038000083F83D20002083F83C0000BD0220704773
:10381000002C01407047704700B583B0114B5A69C6
:1038200042F001025A615B6903F001030193019BBD
:10383000002211460C20FFF775FA0C20FFF782FAE0
:10384000002211460E20FFF76DFA0E20FFF77AFADC
:10385000002211460F20FFF765FA0F20FFF772FADA
:1038600003B000BD00100240FFF78EFA0B480C4970
:103870000C4A002302E0D458C4500433C4188C42CC
:10388000F9D3094A094C002301E013600432A24233
:10389000FBD300F017F8FDF709FB7047000000208C
:1038A00018000020244F0008180000200804002001
:1038B000FEE703460244934200D1704703F8011B20
:1038C000F9E7000070B500260C4C0D4B1D1BB6EB44
:1038D000A50F09D1002600F08DFF0A4C0A4B1D1BD5
:1038E000B6EBA50F05D170BD54F8043B98470136DF
:1038F000EDE754F8043B98470136F1E71C4F000808
:103900001C4F00081C4F0008204F0008174A20F0E9
:103910000043934218D900B5B3F1FF4F83B004D3ED
:103920000146FCF74FFF03B000BD694600F064F9A3
:1039300000F00302012A009801990DD0022A06D056
:103940007AB900F015F8EEE7002100F011B800F0A8
:103950000FF800F10040E6E700F0D4F800F1004075
:10396000E1E7012200F0CEF8DDE700BFD80F493FC4
:103970002DE9F04320F00043B3F1485F05460F46C0
:1039800083B04AD2FDF7EEF9002800F0A180294665
:103990002846FDF721F804465049FDF71DF8504927
:1039A000FCF712FF2146FDF717F84E49FCF70AFF16
:1039B0002146FDF711F84C49FCF706FF2146FDF7BB
:1039C0000BF84A49FCF7FEFE2146FDF705F8484989
:1039D000FCF7FAFE2146FCF7FFFF80464FF07C51D2
:1039E0002046FCF7F9FF414606462046FCF7F4FF67
:1039F000394604462846FCF7EFFF01462046FCF70F
:103A0000E1FE01463046FCF7DDFE01464FF07E50F8
:103A1000FCF7D8FE03B0BDE8F08301460193FCF744
:103A2000DBFF04462D49FCF7D7FF2D49FCF7CCFE00
:103A30002146FCF7D1FF2B49FCF7C4FE2146FCF7D9
:103A4000CBFF2949FCF7C0FE2146FCF7C5FF2749FB
:103A5000FCF7B8FE2146FCF7BFFF2549FCF7B4FE92
:103A60002146FCF7B9FF234A019B80469342B5D912
:103A7000214A934228D803F17F414FF07E500E46F1
:103A8000FCF7A0FE814620464FF07C51FCF7A4FFD6
:103A90003146FCF797FE414606462046FCF79CFF60
:103AA000394604462846FCF797FF01462046FCF7B6
:103AB00089FE01463046FCF785FE01464846FCF784
:103AC00081FE03B0BDE8F083DFF830900C4EDAE7FA
:103AD0004FF07E5003B0BDE8F08300BF4ED747AD36
:103AE000F6740F317CF29334010DD037610BB63A86
:103AF000ABAA2A3D9999993E0000483F0000383F03
:103B00000000903E2DE9F04120F00043B3F1485F02
:103B100004468846174682B003D2FDF723F90028F1
:103B200059D021462046FCF757FF0546014620465E
:103B3000FCF752FF2A4906462846FCF74DFF294963
:103B4000FCF740FE2946FCF747FF2749FCF73CFEFF
:103B50002946FCF741FF2549FCF734FE2946FCF7CE
:103B60003BFF2349FCF730FE2FB301904FF07C510F
:103B70004046FCF731FF4746019980463046FCF746
:103B80002BFF01464046FCF71DFE2946FCF724FFAB
:103B90003946FCF717FE174905463046FCF71CFF6F
:103BA00001462846FCF710FE01462046FCF70AFEB7
:103BB00002B0BDE8F08101462846FCF70DFF0D4933
:103BC000FCF700FE3146FCF707FF2146FCF7FCFD41
:103BD00002B0BDE8F081204602B0BDE8F08100BF30
:103BE000D3C92E2F342FD7321BEF3836010D503961
:103BF0008988083CABAA2A3EDFF8C0C220F0004307
:103C000063457FD92DE9F0438846AD4904468B4290
:103C100089B024D820F0004323F00F030028A949DD
:103C2000029340F33281FCF7CDFDA74A029B044684
:103C3000934276D0A549FCF7C5FD034620461946B8
:103C40001C46FCF7BFFDA149FCF7BCFD0122C8F8EA
:103C50000040C8F80400104609B0BDE8F0839C4954
:103C60008B426ED9B3F1FF4F52D2DA15863AA3EBED
:103C7000C253184616460293FDF774F8FCF758FE37
:103C8000014602980591FCF79DFD4FF08741FCF736
:103C9000A3FE0546FDF766F8FCF74AFE03462846F4
:103CA000194606930293FCF78DFD4FF08741FCF710
:103CB00093FE00210790FDF723F8002800F0BF8055
:103CC00000210298FDF71CF8002814BF01230223ED
:103CD0004FF0020C7F493246019105A84146CDF8CC
:103CE00000C000F01DF9002C0246B4DAD8E9001338
:103CF00001F1004103F10043C8F80010C8F8043096
:103D00004242A8E70023002208604B60104670473B
:103D10000146FCF757FD0022C8F80400C8F800006F
:103D200099E76D49FCF74EFD6C490546FCF74AFDE5
:103D3000044628462146FCF745FD6849FCF742FD4C
:103D400084E7039300F0E8F865490546FCF744FE74
:103D50004FF07C51FCF738FDFDF704F80290FCF7BA
:103D6000E7FD584906468146FCF736FE01462846DF
:103D7000FCF728FD554905463046FCF72DFE014667
:103D800007462846FCF71EFD029A06461F2A039B9B
:103D90000CDC5449501E51F8200024F0004121F061
:103DA000FF01814202D0C8F8006030E0C6F3C7517D
:103DB000C1EBD3510829F6DD47494846CDE9023227
:103DC000FCF70AFE064601462846FCF7FBFC0146C6
:103DD00028460D46FCF7F6FC3146FCF7F3FC064698
:103DE0003E494846FCF7F8FD3146FCF7EBFC01463E
:103DF00007462846FCF7E6FC029BC0F3C751C1EB1F
:103E0000E353192B0646039A1BDCC8F80000314621
:103E100028460292FCF7D6FC3946FCF7D3FC002C6E
:103E2000029AC8F80400BFF616AF06F1004300F18D
:103E30000040C8F80030C8F8040052420BE70323E2
:103E400046E7294948460392FCF7C6FD0146029021
:103E50002846FCF7B7FC014628460D46FCF7B2FCA5
:103E60000299FCF7AFFC074620494846FCF7B4FD31
:103E70003946FCF7A7FC014607462846FCF7A2FC9A
:103E8000039A0646C8F80000C1E7FCF79DFC0E4AFD
:103E9000029B054693422BD00C49FCF795FC044647
:103EA00028462146FCF78EFC0849FCF78DFC4FF0B4
:103EB000FF32C8F80040C8F80400CCE6D80F493FEC
:103EC000E3CB1640800FC93FD00FC93F434435377D
:103ED000800F4943CC4B00080044353708A3852E9A
:103EE00084F9223F4C4B000800A3852E32318D24EB
:103EF0000749FCF769FC07490546FCF765FC0446E1
:103F000028462146FCF75EFC0249FCF75DFCCEE743
:103F10000044353708A3852E20F00040704700BFCD
:103F20002DE9F04F9E46DDB0B74B0991669980466A
:103F300053F821A00EF1FF33111D0B920293C0F232
:103F4000B382D31E48BF131DDB1006930133DB0081
:103F50000A93DDE90A239A1A0EF1FF331AEB0307DD
:103F600022D4069B0EF1FF3101375D1A2F443E46E5
:103F700000249346DDF89C9120AFCDF800E008E0E6
:103F800059F82500FCF7D4FC0135B54247F8040B7D
:103F900007D0002DF4DA20460135B54247F8040B6E
:103FA000F7D15A46DDF800E0BAF1000FC0F21E81E9
:103FB000029B48AF002B9946B8BF00200AEB0E0CBD
:103FC000C0F20881A8F10403E0464FEA8E05CDE96E
:103FD000045E0DF1800BCDF800A00193CA4603EBFF
:103FE0008E060BEB8E0903924D460024DDF804B0DB
:103FF00055F8041D5BF8040FFCF7EEFC0146204663
:10400000FCF7E2FBB3450446F2D10AF1010AC245CE
:1040100047F8040B09F10409E6D1DDE90325DDF8D1
:1040200000A0DDF814E0019B0BA800EB8A000CA9AE
:10403000D146CDE903A21D44079001EB8A0ACDF8D1
:1040400020E00DEB8903D3F820B1B9F1000F4FEA5E
:104050008903009322DD0DF590780CAE08EB030484
:104060004FF06E515846FCF7B7FCFCF77BFEFCF7AF
:104070005FFC4FF087410746FCF7AEFC014658460F
:10408000FCF7A0FBFCF76EFE54F8041D46F8040B89
:104090003846FCF799FB44458346E1D1DDF81080B2
:1040A0005846414600F0FAFA4FF078510446FCF7C2
:1040B00093FC00F04DFB4FF08241FCF78DFC014674
:1040C0002046FCF77FFB0446FCF74CFE0646FCF757
:1040D0002FFC01462046FCF775FBB8F1000F0746A0
:1040E00040F3948009F1FF320CAB53F82230C8F151
:1040F000080043FA00F101FA00F01B1AC8F10708A2
:1041000043FA08F80E44B8F1000F0CA941F8223028
:1041100000F3478100213846FCF7F2FD002800F04B
:104120008680039B99450CDD0022009B30336B4455
:1041300053F8041D534542EA0102F9D1002A40F028
:104140009381039B0CAA013B52F8233009F101072C
:10415000002B40F087810123079A52F8041D013398
:104160000029FAD009EB0302069B20AE03EB0901FC
:10417000089B67984B4406EB8306009B0DF59078EF
:1041800000EB810998440092CDF814A059F8040F6F
:10419000FCF7CEFB029B46F8040B002B2CDBB2464F
:1041A0000024DDF804B05AF8041D5BF8040FFCF796
:1041B00013FC01462046FCF707FBAB450446F2D151
:1041C000009B01379F4248F8044FDFDD9946DDF838
:1041D00014A036E709F101036345386009F10209CB
:1041E00004D0E145786007F10807F3D1A8F1040392
:1041F00001934FEA8E0516E70024009B01379F428A
:1042000048F8044FC2DDE1E7104F000800F00F81CD
:104210004FF07C51FCF792FD002840F04A81804627
:1042200000213846FCF76CFD00287FF47AAFDDE909
:1042300003A238460092DDE90A32991ACDF80490BB
:1042400000F02CFA4FF087410446FCF777FDDDE9DA
:104250000023CDE90032002800F0C6814FF06E51F6
:104260002046FCF7B9FBFCF77DFDFCF761FB4FF046
:1042700087410546FCF7B0FB01462046FCF7A2FA51
:10428000FCF770FD009B0CAA42F82300019A284617
:1042900008325F1C0092FCF765FD0CAB009A43F8F6
:1042A000270011464FF07E5000F0F8F9002F8346AA
:1042B000C0F2C9814FF06E590DAB49ACB90003EBA8
:1042C000870504EB8704009155F8040DFCF730FBDB
:1042D0005946FCF781FB02464946584644F8042DEE
:1042E000FCF77AFB0CAB9D428346EDD1009947AABF
:1042F000BAF1000F0196CDF808804FF000060DF1DD
:10430000D00902EB01080097039121DB4746002406
:104310000025DFF81CB20DE057F8041F5BF8040B12
:10432000FCF75AFB01462046FCF74EFA0135AA4538
:10433000044601DBB542EFDD009B49F8044B9E4289
:10434000A8F104080CD0BAF1000F06F10106DDDA7D
:104350000024009B49F8044B9E42A8F10408F2D1C6
:10436000DDE90168669B009F022B039900F3E28060
:10437000002B00F3B0800FD1002035AC0C4454F872
:10438000041DFCF721FA34ABA342F8D1B8F1000FB9
:1043900040F04A81099B186006F007005DB0BDE857
:1043A000F08FB9F1000F06F1010640F340810021C2
:1043B0000CAB53F8044B5CBB01314945F9DB049B62
:1043C000002B0DDD012B64D0022B09D109F1FF3246
:1043D0000CAB53F822300CA903F03F0341F8223014
:1043E000B8F1020F7FF496AE39464FF07E50FCF7DD
:1043F000E9F90746002C3FF48DAE04994FF07E504A
:1044000000F04CF901463846FCF7DCF9074681E636
:10441000C4F5807443F8044C04E01A68C2F1FF024A
:1044200043F8042B01318945F7DC0124C7E709F182
:10443000FF330CAA52F823304FEAE318B8F1000F0B
:104440007FF768AEB9F1000F06F10106AFDCB8F1F5
:10445000020F7FF45FAE39464FF07E50FCF7B2F9A1
:10446000074657E63A467FE609F1FF370CAB53F8AB
:104470002730DDE903A2083A002B7FF412AF009B3E
:104480000BA90B4453F8041D013F083A0029F9D049
:1044900007E709F1FF320CAB53F822300CA903F007
:1044A0007F0341F822309BE708230A9300230693F9
:1044B0004FE5B9F1000FC8BF4FF0020806F1010641
:1044C0003FF775AF39464FF07E50FCF77BF94FF060
:1044D000020807461EE6002035ACDDF8D0A00C44EB
:1044E00054F8041DFCF770F934ABA342F8D105462B
:1044F0005046B8F1000F40F08C802946FCF762F975
:10450000099B1D6067B1012554F8041F0135FCF7B4
:104510005BF9AF42F8DAB8F1000F01D000F10040CA
:10452000099B586006F007005DB0BDE8F08F00BF42
:10453000E44E0008669B032B7FF42EAF002F00F0A3
:104540009D8034AB03EB010B5D46894634AA545879
:10455000009655F8046C20463146FCF735F9A24622
:10456000044630462146FCF72DF95146FCF72CF95C
:10457000AA46286045F8044C34AB043DAB42E8D170
:10458000012F009E7AD04F4653F809405BF8049CF7
:1045900020464946FCF718F9254604464846214678
:1045A000FCF710F92946FCF70FF9CBF800004BF89F
:1045B000044DDA45EAD100200AEB07050AF1040AA6
:1045C00055F8041DFCF700F9AA45F9D1349A359B3A
:1045D000B8F1000F12D109990A604B60886006F0AB
:1045E00007005DB0BDE8F08F2046FCF7BBFB009BE9
:1045F0000CAA42F823001F46019A52E6099902F1DB
:10460000004203F1004300F100400A604B60886003
:10461000E5E7099A05F1004329461360FCF7D2F853
:10462000002F7FF470AF79E700F10040B2E6049903
:10463000012915D002297FF40AAF03F03F030CA92A
:1046400041F8223003E7669B022B13DC002B17DCBA
:104650007FF4A2AE0020B8F1000F3FF49BAEE3E779
:1046600003F07F030CA9B8F1020F41F822307FF468
:1046700051ADF0E6669B032B7FF48EAE0020A5E7DC
:104680003498B8F1000F04D04FF00043099A13603A
:1046900044E70023099A136042E700BF30F0004C62
:1046A000034624D0BCF1FF4F10B50C461BD210F0CE
:1046B000FF4F02461CD14FF09841FCF78DF9214A7B
:1046C000034694422EDB4CF25031C0F3C75C8C425F
:1046D0000246ACF1190C11DD18461B4961F31E00AE
:1046E000FCF77AF910BD0146FCF76EF810BD704773
:1046F0004CF250318C424FEADC5CEDDC04EB0C01F7
:10470000FE29E9DC002911DC11F1160F13DB01F1A0
:10471000190022F0FF424FF04C5142EAC050FCF722
:104720005BF910BD0949FCF757F910BD22F0FF42B3
:1047300042EAC15010BD1846044961F31E00FCF75F
:104740004BF910BDB03CFFFFCAF249716042A20DA7
:1047500030B5C0F3C7527F3A162A0346044683B0E9
:104760001CDC002A27DB204941FA02F528421AD036
:104770001E4900900192FCF727F80021FCF7E8FAA7
:1047800038B34FF40000019A1041204434EA240366
:1047900028BF034623EA050003B030BD20F00042E5
:1047A000B2F1FF4F02D2184603B030BD0146FCF70C
:1047B0000BF803B030BD0D490090FCF705F800215F
:1047C000FCF7C6FA18B1002C05DB0020ECE7204608
:1047D000EAE70098E8E724F0004313B94FF00040FF
:1047E000E2E70348E0E700BFFFFF7F00CAF249713C
:1047F000000080BFF8B500BFF8BC08BC9E467047FB
:0C480000F8B500BFF8BC08BC9E4670472D
:10480C004704920409067305BE0554060502040309
:10481C00010000000000891112239B322446AD5781
:10482C003665BF74488CC19D5AAFD3BE6CCAE5DBEC
:10483C007EE9F7F88110080193331A22A5562C470C
:10484C00B7753E64C99C408DDBBF52AEEDDA64CBCC
:10485C00FFF976E802218B30100299132667AF76A8
:10486C003444BD554AADC3BC588ED19F6EEBE7FAAC
:10487C007CC8F5D983310A2091121803A7772E66CC
:10488C00B5543C45CBBD42ACD99E508FEFFB66EA8C
:10489C00FDD874C904428D5316619F702004A9156C
:1048AC003227BB364CCEC5DF5EEDD7FC6888E1996C
:1048BC007AABF3BA85520C4397711E60A11428058C
:1048CC00B3373A26CDDE44CFDFFD56ECE99860894C
:1048DC00FBBB72AA06638F7214409D512225AB3428
:1048EC003006B9174EEFC7FE5CCCD5DD6AA9E3B82C
:1048FC00788AF19B87730E6295501C41A3352A244C
:10490C00B1163807CFFF46EEDDDC54CDEBB962A80B
:10491C00F99A708B088481951AA793B62CC2A5D3EB
:10492C003EE1B7F04008C919522BDB3A644EED5FFB
:10493C00766DFF7C899400859BB712A6ADD224C3FB
:10494C00BFF136E0C1184809D33B5A2AE55E6C4FDB
:10495C00F77D7E6C0AA583B4188691972EE3A7F297
:10496C003CC0B5D14229CB38500AD91B666FEF7EBB
:10497C00744CFD5D8BB502A499961087AFF326E2BB
:10498C00BDD034C1C3394A28D11A580BE77F6E6E9B
:10499C00F55C7C4D0CC685D71EE597F42880A1915B
:1049AC003AA3B3B2444ACD5B5669DF78600CE91D7B
:1049BC00722FFB3E8DD604C79FF516E4A99020817B
:1049CC00BBB332A2C55A4C4BD7795E68E11C680D5B
:1049DC00F33F7A2E0EE787F61CC495D52AA1A3B017
:1049EC003882B193466BCF7A5448DD59622DEB3C3B
:1049FC00700EF91F8FF706E69DD414C5ABB122A03B
:104A0C00B9923083C77B4E6AD5585C49E33D6A2C1A
:104A1C00F11E780F005EBCE2613FDD83C29C7E20FC
:104A2C00A3FD1F419DC3217FFCA2401E5F01E3BD7E
:104A3C003E6082DC237D9FC1421CFEA0E1BF5D0372
:104A4C0080DE3C62BEE0025CDF81633D7C22C09E66
:104A5C001D43A1FF4618FAA427799BC584DA386652
:104A6C00E5BB5907DB856739BAE406581947A5FB3E
:104A7C007826C49A653BD987045AB8E6A7F91B4532
:104A8C00C6987A24F8A6441A99C7257B3A6486D826
:104A9C005B05E7B98CD2306EEDB3510F4E10F2AC12
:104AAC002F7193CD114FADF3702ECC92D38D6F31FE
:104ABC00B2EC0E50AFF1134DCE90722C6D33D18FF2
:104ACC000C52B0EE326C8ED0530DEFB1F0AE4C12E6
:104ADC0091CF2D73CA947628ABF517490856B4EAD2
:104AEC006937D58B5709EBB536688AD495CB2977BE
:104AFC00F4AA4816E9B7550B88D6346A2B7597C9B2
:104B0C004A14F6A8742AC896154BA9F7B6E80A54A5
:104B1C00D7896B350102000002030405060708095A
:104B2C000A0B0C0D0E0F1010000000000102030404
:104B3C000000000000000000010203040607080941
:104B4C00000FC93F000F494000CB9640000FC940F1
:104B5C000053FB4000CB164100ED2F41000F4941A3
:104B6C000031624100537B41003A8A4100CB9641AF
:104B7C00005CA34100EDAF41007EBC41000FC94178
:104B8C0000A0D5410031E24100C2EE410053FB418F
:104B9C0000F20342003A0A420083104200CB164254
:104BAC0000141D42005C234200A5294200ED2F4257
:104BBC0000363642007E3C4200C74242000F49425A
:104BCC00A2000000F9000000830000006E0000004D
:104BDC004E000000440000001500000029000000F9
:104BEC00FC0000002700000057000000D10000006E
:104BFC00F500000034000000DD000000C0000000E3
:104C0C00DB0000006200000095000000990000002D
:104C1C003C00000043000000900000004100000038
:104C2C00FE0000005100000063000000AB0000001B
:104C3C00DE000000BB000000C500000061000000A9
:104C4C00B7000000240000006E0000003A000000D5
:104C5C00420000004D000000D2000000E000000007
:104C6C0006000000490000002E000000EA000000D1
:104C7C0009000000D1000000920000001C000000A0
:104C8C00FE0000001D000000EB0000001C000000F6
:104C9C00B100000029000000A70000003E00000049
:104CAC00E80000008200000035000000F500000064
:104CBC002E000000BB000000440000008400000037
:104CCC00E90000009C0000007000000026000000BD
:104CDC00B40000005F0000007E00000041000000F6
:104CEC003900000091000000D600000039000000DF
:104CFC00830000005300000039000000F4000000A5
:104D0C009C000000840000005F0000008B0000008D
:104D1C00BD000000F9000000280000003B0000006E
:104D2C001F000000F800000097000000FF000000CA
:104D3C00DE00000005000000980000000F000000DD
:104D4C00EF0000002F000000110000008B0000009D
:104D5C005A0000000A0000006D0000001F00000057
:104D6C006D000000360000007E000000CF00000047
:104D7C0027000000CB00000009000000B700000075
:104D8C004F000000460000003F00000066000000DD
:104D9C009E0000005F000000EA0000002D000000F3
:104DAC007500000027000000BA000000C7000000DA
:104DBC00EB000000E5000000F10000007B000000AB
:104DCC003D0000000700000039000000F700000063
:104DDC008A0000005200000092000000EA0000006F
:104DEC006B000000FB0000005F000000B100000041
:104DFC001F0000008D0000005D0000000800000096
:104E0C0056000000030000003000000046000000C7
:104E1C00FC0000007B0000006B000000AB000000F9
:104E2C00F0000000CF000000BC00000020000000DB
:104E3C009A000000F4000000360000001D00000085
:104E4C00A9000000E30000009100000061000000D8
:104E5C005E000000E60000001B00000008000000DF
:104E6C006500000099000000850000005F00000054
:104E7C0014000000A00000006800000040000000CA
:104E8C008D000000FF000000D80000008000000032
:104E9C004D000000730000002700000031000000EE
:104EAC00060000000600000015000000560000007F
:104EBC00CA00000073000000A8000000C900000038
:104ECC0060000000E20000007B000000C000000059
:104EDC008C0000006B0000000000C93F0000F0399E
:104EEC000000DA370000A2330000842E0000502BA3
:104EFC000000C2270000D0220000C41F0000C61B07
:104F0C000000441704000000070000000900000026
:044F1C00190E000862
:044F2000F10D000887
:104F2400010000000A000000FFFFFFFF0100000075
:084F34001000000000127A00D9
:04000005080038694E
:00000001FF
