:020000040800F2
:1000000000500020612800089506000897060008A7
:10001000990600089B0600089D06000800000000E5
:100020000000000000000000000000009F06000823
:10003000A106000800000000A3060008A5060008AD
:10004000A9280008A9280008A9280008A92800084C
:10005000A9280008A9280008A9280008A92800083C
:10006000A9280008A9280008A9280008A92800082C
:10007000AD060008A9280008BD060008CD06000846
:10008000A9280008A9280008A9280008A92800080C
:10009000A9280008A9280008A9280008A9280008FC
:1000A000A9280008A9280008A9280008A9280008EC
:1000B000DD060008A9280008A9280008A9280008CA
:1000C000A9280008A9280008A9280008A9280008CC
:1000D000F106000801070008A92800081107000818
:1000E000A9280008A9280008A92800080000000085
:1000F0000000000000000000000000000000000000
:0C01000000000000000000005FF808F1A3
:10010C0080F0004002E000BF81F0004142001FBFC0
:10011C005FEA410392EA030F7FEA226C7FEA236CC9
:10012C006AD04FEA1262D2EB1363C1BFD2184140BE
:10013C0048404140B8BF5B42192B88BF704710F054
:10014C00004F40F4000020F07F4018BF404211F0F7
:10015C00004F41F4000121F07F4118BF494292EA5F
:10016C00030F3FD0A2F1010241FA03FC10EB0C008B
:10017C00C3F1200301FA03F100F0004302D5494218
:10018C0060EB4000B0F5000F13D3B0F1807F06D3C5
:10019C0040084FEA310102F10102FE2A51D2B1F1BD
:1001AC00004F40EBC25008BF20F0010040EA0300B2
:1001BC007047490040EB0000013A28BFB0F5000F32
:1001CC00EDD2B0FA80FCACF1080CB2EB0C0200FAE8
:1001DC000CF0AABF00EBC25052421843BCBFD04037
:1001EC001843704792F0000F81F4000106BF80F4B1
:1001FC0000000132013BB5E74FEA41037FEA226C74
:10020C0018BF7FEA236C21D092EA030F04D092F03E
:10021C00000F08BF0846704790EA010F1CBF002072
:10022C00704712F07F4F04D1400028BF40F00040CF
:10023C00704712F100723CBF00F50000704700F0EF
:10024C00004343F0FE4040F4000070477FEA226216
:10025C0016BF08467FEA23630146420206BF5FEAE7
:10026C00412390EA010F40F4800070474FF00003E7
:10027C0004E000BF10F0004348BF40425FEA000CAE
:10028C0008BF704743F0964301464FF000001CE056
:10029C0050EA010208BF70474FF000030AE000BFAC
:1002AC0050EA010208BF704711F0004302D54042EA
:1002BC0061EB41015FEA010C02BF8446014600205C
:1002CC0043F0B64308BFA3F18053A3F50003BCFA77
:1002DC008CF2083AA3EBC25310DB01FA02FC634424
:1002EC0000FA02FCC2F12002BCF1004F20FA02F22B
:1002FC0043EB020008BF20F00100704702F120021E
:10030C0001FA02FCC2F1200250EA4C0021FA02F27E
:10031C0043EB020008BF20EADC7070470348044B33
:10032C00834202D0034B03B1184770470C000020E6
:10033C000C000020000000000548064B1B1AD90FCA
:10034C0001EBA301491002D0034B03B118477047CE
:10035C000C0000200C0000200000000010B5064C22
:10036C00237843B9FFF7DAFF044B13B10448AFF31A
:10037C0000800123237010BD0C0000200000000041
:10038C000429000808B5054B1BB105490548AFF316
:10039C000080BDE80840FFF7CFBF00BF00000000A1
:1003AC00100000200429000872B6FEE710B590B0CA
:1003BC0006AC28220021204602F071FA002301939A
:1003CC000293039304930593012206924FF4803316
:1003DC0007934FF4003108910A9202220D920E936A
:1003EC004FF400130F93204600F096FE78B90F23BC
:1003FC0001930223029303904FF4806204920590C0
:10040C00012101A801F0BCF818B910B010BDFFF71C
:10041C00CBFFFFF7C9FF000008B500F043FEFFF764
:10042C00C5FF00F01DF802F0EDF900F049F800F0FE
:10043C0061F801F0A1FC01F04DFF00221146FF20F4
:10044C0000F098FA00F012FA00F086F900F0A0F92A
:10045C00024801F0C1FF00F0E3F9FCE7D8020020EC
:10046C0000B589B004A9002304934B608B60CB606A
:10047C0003F1804303F504339A6942F020029A6138
:10048C009A6902F020020192019A9A6942F00402E0
:10049C009A619A6902F004020292029A9A6942F0F5
:1004AC0008029A619B6903F008030393039B78236A
:1004BC000493024801F040F909B000BD0008014066
:1004CC0008B50A480A4B03604FF4612343600023CC
:1004DC008360C36003610C2242618361C36100F0DD
:1004EC0025FB00B908BDFFF75FFFFBE7F800002014
:1004FC000038014008B50A480A4B03604FF4E13359
:10050C00436000238360C36003610C2242618361FA
:10051C00C36100F00BFB00B908BDFFF745FFFBE71B
:10052C00B00000200048004030B589B005460023DB
:10053C00049305930693079303684A4A934204D0A5
:10054C00494A934247D009B030BD484B9A6942F4AE
:10055C0080429A619A6902F480420092009A9A69E8
:10056C0042F004029A619B6903F004030193019B1E
:10057C004FF400730493022305930323079304A9F8
:10058C003B4801F0D9F84FF48063049300240594A0
:10059C00069404A9364801F0CFF83648364B036070
:1005AC001023436084608023C360046144618461D0
:1005BC00C46101F0D7F958B92E4BAB635D620022D0
:1005CC001146252001F0A4FB252001F0B1FBBAE770
:1005DC00FFF7EAFEF0E7254BDA6942F48022DA6194
:1005EC00DA6902F480220292029A9A6942F00802B5
:1005FC009A619B6903F008030393039B4FF4806398
:10060C000493022305930323079304A91B4801F0C9
:10061C0093F84FF40063049300240594069404A902
:10062C00164801F089F81648164B036010234360F6
:10063C0084608023C360046144618461C46101F0FF
:10064C0091F958B90E4BAB635D620022114627201D
:10065C0001F05EFB272001F06BFB74E7FFF7A4FEB3
:10066C00F0E700BF00380140004800400010024095
:10067C00000801406C00002044000240000C0140C6
:10068C00280000201C000240FEE7FEE7FEE7FEE724
:10069C00FEE770477047704708B500F015FD08BDC0
:1006AC0008B5024801F03EFA08BD00BF2800002042
:1006BC0008B5024801F036FA08BD00BF6C000020F6
:1006CC0008B5024801F02EFA08BD00BF3C0200201C
:1006DC0008B500F069F8024801F0B5FE08BD00BF8E
:1006EC00D802002008B5024801F060FD08BD00BF2B
:1006FC008002002008B5024800F06EFB08BD00BF68
:10070C00F800002008B5024800F066FB08BD00BFE9
:10071C00B000002082B00E4B9A6942F001029A613F
:10072C009A6902F001020092009ADA6942F0805252
:10073C00DA61DB6903F080530193019B054A53682E
:10074C0023F0E06343F00073536002B0704700BFC6
:10075C00001002400000014010B50B4C3C2200215F
:10076C00204602F09CF8094B00221A809A70032351
:10077C002360042363610523A3624FF491636360D8
:10078C004FF40C73A36010BD600100205C010020CD
:10079C00044B00221A755A7580229A757F22DA75DD
:1007AC00704700BF4401002070B54021114801F092
:1007BC00B5F8061E18BF01260F4D2868FFF75AFD25
:1007CC000E4C2060E868FFF755FD60603046FFF77F
:1007DC004DFDA0600A4B1878FFF748FDE060182229
:1007EC002146084800F0D2F9074A13680133136018
:1007FC0070BD00BF000801406001002044010020D2
:10080C005C010020F800002040010020034B002276
:10081C001A60024B1B688342FBD3704740010020D7
:10082C0038B500250CE01920FFF7F0FF21460D48E4
:10083C0001F074F8B0FA80F040090B4B58550135B3
:10084C00022D0DDCEB1C01249C40A4B22146054872
:10085C0001F064F80028E6D0034B00225A55EEE76D
:10086C0038BD00BF000801405C01002008B50648F7
:10087C0001F02CFD012800D008BD9C220349024840
:10088C0001F0D2FBF8E700BF800200209C010020A1
:10089C0008B59C220021024802F001F808BD00BFF7
:1008AC009C01002030B585B004464FF0000C18E0D8
:1008BC004FF0E00E1DE0082024E04FF0E00E2FE09A
:1008CC00082036E04FF0E00E41E008250CF1100056
:1008DC0068444EEA050E00F804EC9B00DBB20CF108
:1008EC00010CBCF1030F3CDC11F0800FE0D14FF098
:1008FC00800E0CF11000684400F808EC11F0400F69
:10090C00D9D00E204EEA000E0CF11000684400F80D
:10091C0008EC8900C9B212F0800FCED14FF0800ED6
:10092C000CF11000684400F80CEC12F0400FC7D02A
:10093C000E204EEA000E0CF11000684400F80CEC8E
:10094C009200D2B213F0800FBCD14FF0800E0CF19C
:10095C001000684400F804EC13F0400FB5D00E25DD
:10096C00B4E701AB07CB20606160A260204605B004
:10097C0030BD00002DE9F04385B080460F46164689
:10098C00FFF786FF002512E06C1D04EB44030A4CB4
:10099C0004EB830433463A4641466846FFF782FF30
:1009AC00A44600980199029AACE807000135022D83
:1009BC00EADD05B0BDE8F0839C010020026802F17D
:1009CC000C0353E8003F23F0C0030C3242E8003123
:1009DC000029F3D1202380F841307047026802F1DE
:1009EC000C0353E8003F23F490730C3242E80031BF
:1009FC000029F3D1026802F1140353E8003F23F0FD
:100A0C000103143242E800310029F3D1036B012BAE
:100A1C0005D0202380F8423000230363704702681E
:100A2C0002F10C0353E8003F23F010030C3242E8B0
:100A3C0000310029F3D1ECE790F84130212B01D0A3
:100A4C00022070478368B3F5805F17D0036A5A1C85
:100A5C0002621A7803685A60C38C9BB2013B9BB24A
:100A6C00C3844BB90268D36823F08003D360026857
:100A7C00D36843F04003D360002070470369002B18
:100A8C00E4D1036A1B880268C3F308035360036A4A
:100A9C0002330362E0E7000010B5044602681369F4
:100AAC0023F44053C1680B431361836802691343F9
:100ABC0042691A430168CB6823F4B05323F00C034A
:100ACC001343CB600268536923F4407381690B4371
:100ADC0053610268134B9A4220D000F00DFE02467F
:100AEC0002EB820202EB820263689B00B2FBF3F220
:100AFC000D48A0FB02314909642303FB11231B01A0
:100B0C003233A0FB03035B0903F0F00202EB01128A
:100B1C0003F00F03216813448B6010BD00F0FCFD43
:100B2C000246DDE7003801401F85EB5160B310B57C
:100B3C00044690F8413013B3242384F841302268E2
:100B4C00D36823F40053D3602046FFF7A5FF226837
:100B5C00136923F4904313612268536923F02A0329
:100B6C0053612268D36843F40053D360002060645F
:100B7C00202384F8413084F84230606310BD80F843
:100B8C004030FFF7D1FCD7E70120704790F8413097
:100B9C00202B37D110B50446002935D00AB90120D5
:100BAC0010BD01628284C28400234364212084F836
:100BBC0041001648D4F838C0CCF828001448D4F8B2
:100BCC0038C0CCF82C001348D4F838C0CCF830001E
:100BDC00A06B436320681346021DA06B00F0F6FE69
:100BEC0023686FF040021A60226802F1140353E884
:100BFC00003F43F08003143242E800310029F3D166
:100C0C000846CDE7022070470120C9E7270C0008F1
:100C1C008F0C00089D0C0008704708B50346406A0D
:100C2C001B681B6813F0200F1AD10023C3840268C1
:100C3C0002F1140353E8003F23F08003143242E81E
:100C4C0000310029F3D1026802F10C0353E8003F94
:100C5C0043F040030C3242E800310029F3D108BDC7
:100C6C00FFF7DAFFFBE708B50168CA6822F040021B
:100C7C00CA60202280F84120FFF7CEFF002008BD7B
:100C8C00704708B5406AFFF7FBFF08BD7047704717
:100C9C0010B5446A23685B6994F84120212A0FD06F
:100CAC0023685B6903F0400394F84220222A11D098
:100CBC00636C43F0100363642046FFF7E8FF10BD3C
:100CCC0003F08003002BEBD00023E3842046FFF7D6
:100CDC0075FEE5E7002BEBD00023E3852046FFF7FC
:100CEC007DFEE5E708B5406A0023C385C384FFF7A2
:100CFC00CEFF08BD704790F84230222B67D1836835
:100D0C00B3F5805F4DD0826AB3F5805F04D0002BC1
:100D1C0054D10369002B51D103685B681370836A4B
:100D2C0001338362C38D9BB2013B9BB2C385002B05
:100D3C004FD100B583B00268D36823F02003D36091
:100D4C000268D36823F48073D3600268536923F07C
:100D5C0001035361202380F8423000234363036B6B
:100D6C00012B31D100230363026802F10C0353E819
:100D7C00003F23F010030C3242E800310029F3D17C
:100D8C0003681A6812F0100F05D001911A680192CD
:100D9C005B680193019B818DFFF7ACFF002003B0D2
:100DAC0000BD0269002AAED1826A03685B68C3F396
:100DBC0008031380836A02338362B3E703685B68BA
:100DCC0003F07F031370AAE7FFF760FFE6E702204A
:100DDC00704700207047000010B582B004460268CE
:100DEC001368D068516913F00F0F09D113F0200F5D
:100DFC000CD010F0200F09D02046FFF77CFF16E036
:100E0C0011F0010115D110F4907F12D1216B012941
:100E1C0079D013F0800F03D010F0800F40F01181C7
:100E2C0013F0400F03D010F0400F40F00E8102B0D1
:100E3C0010BD13F0010F06D010F4807F03D0626C4C
:100E4C0042F00102626413F0040F04D019B1626C19
:100E5C0042F00202626413F0020F04D019B1626C0A
:100E6C0042F00402626413F0080F07D010F0200F58
:100E7C0000D119B1626C42F008026264626C002A03
:100E8C00D5D013F0200F02D010F0200F29D12368F9
:100E9C005B6903F04003626C12F0080F00D163B37E
:100EAC002046FFF79BFD23685B6913F0400F20D0B1
:100EBC00226802F1140353E8003F23F0400314327C
:100ECC0042E800310029F3D1E36B73B1614A5A63F4
:100EDC00E06B00F0DBFD0028A9D0E06B436B98477A
:100EEC00A5E72046FFF707FFD1E72046FFF7CFFE27
:100EFC009DE72046FFF7CBFE99E72046FFF7C7FE9C
:100F0C000023636493E713F0100F82D010F0100FDE
:100F1C003FF47FAF0023019313680193536801934F
:100F2C00019B536913F0400F50D0E26B13685B6860
:100F3C009BB2002B3FF47BAFA18D99427FF677AF2C
:100F4C00E3859369202B36D0226802F10C0353E819
:100F5C00003F23F480730C3242E800310029F3D1B6
:100F6C00226802F1140353E8003F23F0010314320A
:100F7C0042E800310029F3D1226802F1140353E84E
:100F8C00003F23F04003143242E800310029F3D132
:100F9C00202384F842302163226802F10C0353E8C9
:100FAC00003F23F010030C3242E800310029F3D14A
:100FBC00E06B00F048FD02236363A18DE38D9BB2CF
:100FCC00C91A89B22046FFF795FE30E7A18DE38D53
:100FDC009BB2C91A89B2E38D9BB2002B3FF427AFA9
:100FEC0000293FF424AF226802F10C0353E8003FC0
:100FFC0023F490730C3242E800300028F3D12268BD
:10100C0002F1140353E8003F23F00103143242E8C9
:10101C0000300028F3D1202384F84230206322686A
:10102C0002F10C0353E8003F23F010030C3242E8AA
:10103C0000300028F3D1022363632046FFF75AFEE9
:10104C00F5E62046FFF7F8FCF1E62046FFF70BFE2D
:10105C00EDE600BFF10C000810B504460E4B186805
:10106C000E4B1A784FF47A73B3FBF2F3B0FBF3F038
:10107C0000F06CFE68B90F2C01D901200AE0024681
:10108C0021464FF0FF3000F043FE054B1C60002062
:10109C0000E0012010BD00BF08000020000000206F
:1010AC000400002008B5074A136843F010031360CE
:1010BC00032000F01BFE0F20FFF7CEFFFFF72AFBEB
:1010CC00002008BD00200240034A1168034B1B7826
:1010DC000B441360704700BF380200200000002052
:1010EC00014B1868704700BF3802002082B0084BD3
:1010FC001B68084AA2FB03235B0A00FB03F3019362
:10110C0000BF019B5A1E0192002BF9D102B070470F
:10111C0008000020D34D6210002800F0F38170B558
:10112C0082B00446036813F0010F2CD09A4B5B6815
:10113C0003F00C03042B1DD0974B5B6803F00C03DE
:10114C00082B12D06368B3F5803F41D0002B55D1EA
:10115C0003F1804303F504331A6822F480321A60D9
:10116C001A6822F480221A6037E08B4B5B6813F408
:10117C00803FE7D0884B1B6813F4003F03D06368B3
:10118C00002B00F0C181236813F0020F75D0824B45
:10119C005B6813F00C0F5FD07F4B5B6803F00C03A4
:1011AC00082B54D02369002B00F08A807B4B012242
:1011BC001A60FFF795FF0546774B1B6813F0020F7B
:1011CC0075D1FFF78DFF401B0228F5D90320A0E154
:1011DC00714A136843F480331360636843B3FFF7B9
:1011EC007FFF05466C4B1B6813F4003FCBD1FFF718
:1011FC0077FF401B6428F5D903208AE1B3F5A02FB3
:10120C0009D0654B1A6822F480321A601A6822F4ED
:10121C0080221A60E1E703F18043A3F53C331A689E
:10122C0042F480221A601A6842F480321A60D4E7C1
:10123C00FFF756FF0546584B1B6813F4003FA2D02E
:10124C00FFF74EFF401B6428F5D9032061E1524B98
:10125C005B6813F4803FA5D14F4B1B6813F0020F52
:10126C0003D02369012B40F051814B4A136823F0C2
:10127C00F803616943EAC1031360236813F0080F94
:10128C0033D0A369002B5DD0444B0122C3F88024DA
:10129C00FFF726FF0546404B5B6A13F0020F21D186
:1012AC00FFF71EFF401B0228F5D9032031E13A4A13
:1012BC00136823F0F803616943EAC1031360DCE7A8
:1012CC00364B00221A60FFF70BFF0546324B1B68AA
:1012DC0013F0020FD1D0FFF703FF401B0228F5D902
:1012EC00032016E10120FFF701FF236813F0040F20
:1012FC0000F09880284BDB6913F0805F35D1264BCA
:10130C00DA6942F08052DA61DB6903F080530193B1
:10131C00019B01231E46224B1B6813F4807F27D0B0
:10132C00E368012B3ED0002B54D103F1804303F52D
:10133C0004331A6A22F001021A621A6A22F00402B9
:10134C001A6234E0154B0022C3F88024FFF7C8FE64
:10135C000546114B5B6A13F0020FC6D0FFF7C0FEB7
:10136C00401B0228F5D90320D3E000231E46D2E708
:10137C000B4A136843F480731360FFF7B1FE054604
:10138C00074B1B6813F4807FCAD1FFF7A9FE401BE3
:10139C006428F5D90320BCE0001002400000424252
:1013AC00007000405F4A136A43F001031362E36864
:1013BC0033B3FFF795FE05465A4B1B6A13F0020F29
:1013CC002FD1FFF78DFE401B41F288339842F3D9A1
:1013DC0003209EE0052B09D0524B1A6A22F0010221
:1013EC001A621A6A22F004021A62E0E74D4B1A6A7A
:1013FC0042F004021A621A6A42F001021A62D6E73B
:10140C00FFF76EFE0546474B1B6A13F0020F08D020
:10141C00FFF766FE401B41F288339842F3D9032054
:10142C0077E0E6B9E369002B72D03E4A526802F0CD
:10143C000C02082A56D0022B17D03B4B00221A66FE
:10144C00FFF74EFE0446374B1B6813F0007F47D066
:10145C00FFF746FE001B0228F5D9032059E0314A5C
:10146C00D36923F08053D361DCE72F4B00221A663B
:10147C00FFF736FE05462B4B1B6813F0007F06D09A
:10148C00FFF72EFE401B0228F5D9032041E0236A0A
:10149C00B3F5803F1AD023494B6823F47413226AA6
:1014AC00606A024313434B601F4B01221A66FFF71D
:1014BC0017FE04461B4B1B6813F0007F0ED1FFF781
:1014CC000FFE001B0228F5D9032022E0154A5368B1
:1014DC0023F40033A1680B435360DCE7002018E0D1
:1014EC00002016E0012B16D00E4B5B6803F4803104
:1014FC00226A914211D103F47013626A93420ED1A5
:10150C00002006E001207047012002E0012000E0ED
:10151C00184602B070BD0120FBE70120F9E701205D
:10152C00F7E700BF00100240000042420F4B5B681F
:10153C0003F00C02082A01D00D487047C3F3834214
:10154C000C49885C13F4803F0BD0084B5B68C3F3E9
:10155C004043094AD35C064A02FB00F0B0FBF3F0AF
:10156C007047064B03FB00F0704700BF00100240B1
:10157C0000127A00202900081C29000800093D00EF
:10158C00002800F0A08070B50D460446524B1B6835
:10159C0003F007038B420BD24F4A136823F0070367
:1015AC000B431360136803F007038B4240F08D80EC
:1015BC00236813F0020F17D013F0040F04D0474A1E
:1015CC00536843F4E0635360236813F0080F04D0AE
:1015DC00424A536843F460535360404A536823F0C3
:1015EC00F003A1680B435360236813F0010F31D053
:1015FC006368012B20D0022B25D0384A126812F0D8
:10160C00020F64D035494A6822F0030213434B6041
:10161C00FFF766FD0646314B5B6803F00C0362680E
:10162C00B3EB820F16D0FFF75BFD801B41F28833C2
:10163C009842F0D9032045E0284A126812F4003F82
:10164C00E0D101203EE0254A126812F0007FD9D18A
:10165C00012037E0204B1B6803F00703AB420AD98B
:10166C001D4A136823F007032B431360136803F020
:10167C000703AB422DD1236813F0040F06D0174A91
:10168C00536823F4E063E1680B435360236813F061
:10169C00080F07D0114A536823F46053216943EAB9
:1016AC00C1035360FFF742FF0C4B5B68C3F303139A
:1016BC000B4AD35CD8400B4B18600B4B1868FFF7E8
:1016CC00CBFC002070BD012070470120FAE70120FF
:1016DC00F8E70120F6E700BF0020024000100240AE
:1016EC00382900080800002004000020014B18686D
:1016FC00704700BF0800002008B5FFF7F7FF044B48
:10170C005B68C3F30223034AD35CD84008BD00BF17
:10171C00001002403029000808B5FFF7E7FF044B22
:10172C005B68C3F3C223034AD35CD84008BD00BF37
:10173C00001002403029000870B582B04FF0000E46
:10174C00F446A4E0012B28D0022B03D1CB6803F183
:10175C00080E24E01BBB8B68002B65D0012B5CD0E2
:10176C0042614FF0080E1AE0664DAB42F3D00CD834
:10177C00A5F58015AB42EED005F57025AB42EAD04D
:10178C00A5F58015AB42E6D009E05F4DAB42E2D047
:10179C0005F58035AB42DED001E0D1F80CE0FF2C32
:1017AC0045D806464FEA8C0233680F25954023EA4C
:1017BC0005030EFA02F2134333604B6813F0805F9B
:1017CC0063D0524B9A6942F001029A619B6903F013
:1017DC0001030193019B4FEA9C02951C4C4B53F85F
:1017EC0025600CF00305AD000F23AB4026EA030681
:1017FC00484B984222D003F58063984263D003F59E
:10180C008063984261D003F58063984214D004231E
:10181C0015E0CB6803F10C0EC1E702614FF0080E26
:10182C00BDE74FF0000EBAE74FF0040EB7E7061D08
:10183C00ACF108029200B7E7032300E00023AB40B1
:10184C0033430232324D45F822304B6813F4801F7B
:10185C003DD0314A9368234393604B6813F4001FC7
:10186C003BD02D4AD3682343D3604B6813F4003F1D
:10187C0039D0294A5368234353604B6813F4803F93
:10188C0037D0254A1368234313600CF1010C0B6805
:10189C0033FA0CF233D0012202FA0CF203EA0204FE
:1018AC0032EA0303F1D14B68032BBAD07FF64AAF6F
:1018BC00122BAED03FF658AF112B7FF470AFCB6824
:1018CC0003F1040E6BE70123B9E70223B7E7124AD1
:1018DC00936823EA04039360BFE70F4AD36823EAB3
:1018EC000403D360C1E70C4A536823EA0403536032
:1018FC00C3E7094A136823EA04031360C5E702B07F
:10190C0070BD00BF0000221000003110001002401A
:10191C0000000140000801400004014083681942A6
:10192C0001D0012070470020704700B58E46016C35
:10193C004FF0010C0CFA01F1D0F83CC0CCF80410BB
:10194C0001684B604368102B05D00368C3F808E0AE
:10195C000368DA6000BD03689A600368C3F80CE0A2
:10196C00F8E7000050B310B402460168144B0B4466
:10197C001448A0FB03031B099B001364124BD36395
:10198C00022382F8213008686FF30D1053689468B5
:10199C002343D46823431469234354692343946930
:1019AC002343D469234303430B600020906301233A
:1019BC0082F8213082F8200010BC7047012070475B
:1019CC00F8FFFDBFCDCCCCCC0000024010B50446D6
:1019DC0090F82000012834D0012084F8200094F8DD
:1019EC002100012804D0002384F82030022010BDEF
:1019FC00022084F821000020A063D4F800C0DCF899
:101A0C00000020F00100CCF800002046FFF78DFF0D
:101A1C00E36A5BB12268136843F00E03136022681B
:101A2C00136843F0010313600020E0E72268136899
:101A3C0023F0040313602268136843F00A03136055
:101A4C00EDE70220D3E7034690F82120022A06D0C6
:101A5C0004228263002280F8202001207047016854
:101A6C000A6822F00E020A6001680A6822F001027C
:101A7C000A60026CC06B012101FA02F2426083F829
:101A8C002110002083F820007047000008B590F862
:101A9C002130022B03D004238363012008BD02688C
:101AAC00136823F00E0313600268136823F001031C
:101ABC0013600368194A934214D0143293421FD016
:101ACC00143293421ED0143293421ED014329342DD
:101ADC001ED01432934202D04FF0807203E04FF4C8
:101AEC00801200E001220E4B5A60012380F8213055
:101AFC00002380F82030436B6BB198470020CDE772
:101B0C001022F0E74FF48072EDE74FF48052EAE7D1
:101B1C004FF48032E7E71846C0E700BF08000240E8
:101B2C000000024008B5C36B1A68D0F800C0DCF89E
:101B3C0000E0016C04238B40134238D01EF0040FDC
:101B4C0035D0DCF8003013F0200F05D1DCF8003074
:101B5C0023F00403CCF800300368464A934214D0B7
:101B6C001432934218D01432934217D01432934249
:101B7C0017D01432934217D01432934202D04FF044
:101B8C00806203E04FF4800200E004223A4B5A607A
:101B9C00C36A03B1984708BD4022F7E74FF480624F
:101BAC00F4E74FF48042F1E74FF48022EEE7022392
:101BBC008B4013423FD01EF0020F3CD0DCF80030BB
:101BCC0013F0200F08D1DCF8003023F00A03CCF816
:101BDC000030012380F821300368264A934214D048
:101BEC00143293421CD0143293421BD014329342C1
:101BFC001BD0143293421BD01432934202D04FF0BC
:101C0C00007203E04FF4001200E002221A4B5A60FB
:101C1C00002380F82030836A002BBCD09847BAE7A9
:101C2C002022F3E74FF40072F0E74FF40052EDE797
:101C3C004FF40032EAE708238B401342ABD01EF07E
:101C4C00080FA8D0DCF8003023F00E03CCF80030DD
:101C5C00026CC16B012303FA02F24A60836380F8C1
:101C6C002130002380F82030036B002B93D0984751
:101C7C0091E700BF0800024000000240002808DB8A
:101C8C000901C9B200F1604000F5614080F8001311
:101C9C00704700F00F000901C9B2014B195470478D
:101CAC0014ED00E000B500F00700A0F1030CBCF14E
:101CBC00040F07D8C0F1070E0430062806D84FF0E1
:101CCC00000C03E04FF0040E4FF0000C4FF0FF330C
:101CDC0003FA0EF021EA000101FA0CF103FA0CF3FD
:101CEC0022EA030241EA020000BD0000074AD36861
:101CFC0023F4E0631B041B0C000200F4E0600343BC
:101D0C0043F0BF6343F40033D360704700ED00E051
:101D1C0010B50446054BD868C0F30220FFF7C2FF8C
:101D2C0001462046FFF7AAFF10BD00BF00ED00E002
:101D3C00002807DB00F01F02400901239340024AF0
:101D4C0042F82030704700BF00E100E00138B0F1EC
:101D5C00807F0BD24FF0E0235861054AF02182F8C6
:101D6C0023100020986107221A61704701207047E8
:101D7C0000ED00E07047000008B50E480E4B036004
:101D8C004FF48273436000238360C360036143613B
:101D9C004FF4007282611022C2610362436283625B
:101DAC000A23C36200F0E4F800B908BDFEF7FCFAA0
:101DBC00FBE700BF800200200038004010B586B061
:101DCC00002302930393049305930268214B9A42D8
:101DDC0001D006B010BD044603F5EC33DA6942F4C9
:101DEC008042DA61DA6902F480420092009A9A69C0
:101DFC0042F008029A619B6903F008030193019B6E
:101E0C004FF420430293022303930323059302A967
:101E1C001148FFF791FC1148114B036010234360EC
:101E2C00002383608022C260036143618361C361CC
:101E3C00FFF798FD58B9094BA3645C620022114668
:101E4C002420FFF765FF2420FFF772FFC1E7FEF7A0
:101E5C00ABFAF0E700380040000C01403C020020D7
:101E6C00580002402DE9F04383B004460F46164655
:101E7C001D46FFF735F90A9B1B1A03EB0508FFF704
:101E8C002FF98146284B1B68C3F3CB3308FB03F3B4
:101E9C00019323689B6837EA03030CBF01230023DB
:101EAC00B3423DD0B5F1FF3FF3D0FFF719F94B46E4
:101EBC00C01A404507D2019A02B14246019B013B30
:101ECC0001939046E5E72268536823F0E0035360E2
:101EDC006368B3F5827F0BD0A36AB3F5005F14D0AF
:101EEC00012384F85130002384F85030032018E08B
:101EFC00A368B3F5004F02D0B3F5806FECD1226824
:101F0C00136823F040031360E6E72268136823F498
:101F1C00005313602268136843F400531360DFE727
:101F2C00002003B0BDE8F0830800002070B582B03B
:101F3C0004460B460D461646009201220221FFF77D
:101F4C0091FF48B900962B46024680212046FFF7A8
:101F5C0089FF38B902B070BD636D43F0200363652F
:101F6C000320F7E7636D43F0200363650320F1E77B
:101F7C00002856D010B50446436A33B94368B3F50C
:101F8C00827F05D00023C36102E00023036143611B
:101F9C000023A36294F85130002B3CD0022384F828
:101FAC0051302268136823F040031360636803F414
:101FBC008273A26802F404421343E26802F40062E2
:101FCC001343226902F002021343626902F0010218
:101FDC001343A26902F400721343E26902F038025F
:101FEC001343226A02F080021343A26A02F40052E5
:101FFC00216813430B60638B226803F00403536066
:10200C002268D36923F40063D36100206065012347
:10201C0084F8513010BD84F850302046FFF7CEFEC6
:10202C00BCE701207047000038B590F85130012B07
:10203C005ED10446DDB200295BD0002A59D090F85D
:10204C005030012B57D0012380F85030032380F8F7
:10205C0051300023436501638286C28683634364E7
:10206C0003648387C3878368B3F5004F2DD0A36CBB
:10207C00224ADA62A36C224A9A62A36C214A1A633E
:10208C00A36C00225A632268E38E9BB20C32216B44
:10209C00A06CFFF79BFC014610BB23681A6812F07A
:1020AC00400F03D11A6842F040021A60002384F8F2
:1020BC0050302268536843F0200353602268536801
:1020CC0043F0020353600D4613E00268136823F0DB
:1020DC00400313600268136843F480431360C6E73F
:1020EC00636D43F010036365002384F8503000E007
:1020FC000225284638BD0225FBE700BF1921000840
:10210C0047210008252100087047704708B5406A30
:10211C00FFF7FBFF08BD704708B5406A02685368BB
:10212C0023F003035360436D43F010034365012315
:10213C0080F85130FFF7EFFF08BD30B583B005468E
:10214C00446AFEF7CDFF2B681B6813F0200F23D1D8
:10215C00024621684B6823F020034B6021684B68D2
:10216C0023F002034B6064212046FFF7DFFE18B119
:10217C00636D43F020036365A36833B9019323684F
:10218C00DA6801929B680193019B0023E38601238B
:10219C0084F85130636D23B92046FFF7B5FF03B0C7
:1021AC0030BD2046FFF7B7FFF9E7000010B584B04B
:1021BC000446026851689368C3F3801013F0400F13
:1021CC0005D113F0010F02D011F0400F5ED113F0C6
:1021DC00020F02D011F0800F5CD1C3F3401C13F03E
:1021EC00200F01D1002858D011F0200F55D070B11C
:1021FC0094F85130032B52D0636D43F004036365A4
:10220C0000230193D368019393680193019BBCF164
:10221C00000F0CD0636D43F001036365002303933F
:10222C0093680393136823F040031360039B636D5F
:10223C00002B32D02268536823F0E0035360012353
:10224C0084F8513011F0020F02D111F0010F2ED091
:10225C002268536823F003035360E36C4BB1164AB6
:10226C005A63E06CFFF712FC18B1636D43F0400346
:10227C006365A36C8BB1104A5A63A06CFFF706FC24
:10228C0058B1636D43F04003636506E0236C204650
:10229C00984702E0636C2046984704B010BD0023B9
:1022AC000293D368029393680293029BF5E720464E
:1022BC00FFF731FFF1E700BFC922000808B5406AFB
:1022CC000023C387C386FFF726FF08BD90F8510093
:1022DC007047000000B587B000230293039304936A
:1022EC0005930093019315484FF08042026027221A
:1022FC004260836040F2E732C2600361836100F0A8
:10230C0093F988B94FF48053029302A90B4800F05B
:10231C00C2F960B90023009301936946074800F0A5
:10232C0039FA38B907B000BDFEF73EF8EAE7FEF718
:10233C003BF8EFE7FEF738F8F4E700BFD8020020CF
:10234C000368B3F1804F00D0704700B583B003F53C
:10235C000433DA6942F00102DA61DB6903F001034C
:10236C000193019B002211461C20FFF7D1FC1C207D
:10237C00FFF7DEFC03B000BD036AD0F820C02CF0E0
:10238C00010CC0F820C0D0F818C02CF0F00C4CEAAE
:10239C00021223F00A030B43826103627047036A43
:1023AC00D0F820C02CF0100CC0F820C0D0F818C009
:1023BC002CF4704C4CEA023223F0A00343EA0113D4
:1023CC00826103627047836823F070030B4343F010
:1023DC00070383607047000090F83D30012B27D134
:1023EC00022380F83D300268D36843F00103D360C8
:1023FC000368114A934210D0B3F1804F0DD0A2F56F
:10240C009432934209D002F58062934205D01A6847
:10241C0042F001021A60002070479A6802F007022D
:10242C00062A07D01A6842F001021A600020704791
:10243C000120704700207047002C01407047704706
:10244C0070477047704770B504460368DE681D69B5
:10245C0015F0020F10D016F0020F0DD06FF0020223
:10246C001A610123037703689B6913F0030F5ED095
:10247C00FFF7E6FF0023237715F0040F12D016F0B8
:10248C00040F0FD023686FF004021A610223237724
:10249C0023689B6913F4407F4FD02046FFF7D0FF91
:1024AC000023237715F0080F12D016F0080F0FD069
:1024BC0023686FF008021A61042323772368DB6911
:1024CC0013F0030F40D02046FFF7BAFF0023237709
:1024DC0015F0100F12D016F0100F0FD023686FF0FC
:1024EC0010021A61082323772368DB6913F4407FF9
:1024FC0031D02046FFF7A4FF0023237715F0010FFE
:10250C0002D016F0010F2DD115F0800F02D016F06D
:10251C00800F2FD115F0400F02D016F0400F31D1A3
:10252C0015F0200F02D016F0200F33D170BDFFF73D
:10253C0086FF2046FFF785FF9CE72046FFF77FFFCD
:10254C002046FFF77EFFABE72046FFF778FF2046DB
:10255C00FFF777FFBAE72046FFF771FF2046FFF73A
:10256C0070FFC9E723686FF001021A612046FFF77C
:10257C0065FFC9E723686FF080021A61204600F0FE
:10258C0040F9C7E723686FF040021A612046FFF755
:10259C0059FFC5E723686FF020021A61204600F04E
:1025AC002FF9C3E703681F4A90420AD0B0F1804F5D
:1025BC0007D0A2F59432904203D002F5806290428B
:1025CC0003D123F070034A681343164A90420AD091
:1025DC00B0F1804F07D0A2F59432904203D002F5AF
:1025EC008062904203D123F44073CA68134323F0F2
:1025FC0080034A69134303608B68C3620B68836270
:10260C00084B98420AD001234361036913F0010F70
:10261C0003D0036923F00103036170470B69036363
:10262C00F1E700BF002C014040B310B5044690F810
:10263C003D30F3B1022384F83D30214651F8040BB0
:10264C00FFF7B0FF012384F8463084F83E3084F85D
:10265C003F3084F8403084F8413084F8423084F8BC
:10266C00433084F8443084F8453084F83D30002001
:10267C0010BD80F83C30FFF763FEDBE701207047AC
:10268C00D0F808C02CF47F4C42EA03220A4342EAF9
:10269C000C028260704790F83C30012B78D010B55A
:1026AC000446012380F83C30022380F83D30026858
:1026BC00936823F47F4323F0770393600B68602BBC
:1026CC004CD023D8402B54D011D8202B03D00AD86F
:1026DC000BB1102B05D119462068FFF774FE0020B2
:1026EC0028E0012026E0302BF5D0012022E0502BF1
:1026FC000AD1CA6849680068FFF73EFE502120687D
:10270C00FFF761FE002015E0012013E0B3F5805FB8
:10271C003AD0B3F5005F14D0702B37D1CB684A6830
:10272C0089680068FFF7ACFF2268936843F0770371
:10273C0093600020012384F83D30002384F83C3062
:10274C0010BDCB684A6889680068FFF799FF22685A
:10275C00936843F4804393600020EBE7CA684968B0
:10276C000068FFF71CFE60212068FFF72CFE00209C
:10277C00E0E7CA6849680068FFF7FEFD4021206861
:10278C00FFF721FE0020D5E70020D3E70120D1E799
:10279C000220704790F83C20012A2DD000B503464A
:1027AC00012280F83C20022280F83D20026850680B
:1027BC00D2F808E020F0700C086840EA0C00506079
:1027CC001A680E4882420AD0B2F1804F07D0A0F5A9
:1027DC009430824203D000F58060824205D12EF005
:1027EC00800E496841EA0E019160012283F83D2078
:1027FC00002083F83C0000BD02207047002C0140F3
:10280C007047704700B583B0114B5A6942F0010212
:10281C005A615B6903F001030193019B002211468D
:10282C000C20FFF775FA0C20FFF782FA00221146F4
:10283C000E20FFF76DFA0E20FFF77AFA00221146F0
:10284C000F20FFF765FA0F20FFF772FA03B000BDF7
:10285C0000100240FFF78EFA0B480C490C4A00237B
:10286C0002E0D458C4500433C4188C42F9D3094A3A
:10287C00094C002301E013600432A242FBD300F0A8
:10288C0017F8FDF7C9FD7047000000200C00002070
:10289C00502900080C00002020030020FEE703460E
:1028AC000244934200D1704703F8011BF9E7000082
:1028BC0070B500260C4C0D4B1D1BB6EBA50F09D1AA
:1028CC00002600F019F80A4C0A4B1D1BB6EBA50F9D
:1028DC0005D170BD54F8043B98470136EDE754F828
:1028EC00043B98470136F1E74829000848290008BD
:1028FC00482900084C290008F8B500BFF8BC08BCF2
:10290C009E467047F8B500BFF8BC08BC9E467047A1
:10291C000102000002030405060708090A0B0C0D4E
:10292C000E0F101000000000010203040000000054
:0C293C0000000000010203040607080967
:0429480091030008EF
:04294C006903000813
:0C295000010000001000000000127A00DE
:040000050800286166
:00000001FF
